{
  "address": "0x9541E269EC9FEf507f8a4719Bb1a3C3960A1711B",
  "abi": [
    {
      "inputs": [
        {
          "internalType": "address",
          "name": "_paymentToken",
          "type": "address"
        }
      ],
      "stateMutability": "nonpayable",
      "type": "constructor"
    },
    {
      "inputs": [],
      "name": "InvalidFillId",
      "type": "error"
    },
    {
      "inputs": [],
      "name": "InvalidOrderId",
      "type": "error"
    },
    {
      "inputs": [],
      "name": "MakerCannotFill",
      "type": "error"
    },
    {
      "inputs": [],
      "name": "NotMaker",
      "type": "error"
    },
    {
      "inputs": [],
      "name": "NotOwner",
      "type": "error"
    },
    {
      "inputs": [],
      "name": "OrderNotOpen",
      "type": "error"
    },
    {
      "inputs": [
        {
          "internalType": "bytes32",
          "name": "handle",
          "type": "bytes32"
        },
        {
          "internalType": "address",
          "name": "sender",
          "type": "address"
        }
      ],
      "name": "SenderNotAllowedToUseHandle",
      "type": "error"
    },
    {
      "inputs": [],
      "name": "TransferFailed",
      "type": "error"
    },
    {
      "inputs": [],
      "name": "ZamaProtocolUnsupported",
      "type": "error"
    },
    {
      "inputs": [],
      "name": "ZeroAddress",
      "type": "error"
    },
    {
      "inputs": [],
      "name": "ZeroDeposit",
      "type": "error"
    },
    {
      "anonymous": false,
      "inputs": [
        {
          "indexed": true,
          "internalType": "uint256",
          "name": "orderId",
          "type": "uint256"
        },
        {
          "indexed": true,
          "internalType": "address",
          "name": "viewer",
          "type": "address"
        }
      ],
      "name": "AccessGranted",
      "type": "event"
    },
    {
      "anonymous": false,
      "inputs": [
        {
          "indexed": true,
          "internalType": "uint256",
          "name": "orderId",
          "type": "uint256"
        }
      ],
      "name": "AuditorAccessGranted",
      "type": "event"
    },
    {
      "anonymous": false,
      "inputs": [
        {
          "indexed": true,
          "internalType": "address",
          "name": "oldAuditor",
          "type": "address"
        },
        {
          "indexed": true,
          "internalType": "address",
          "name": "newAuditor",
          "type": "address"
        }
      ],
      "name": "AuditorUpdated",
      "type": "event"
    },
    {
      "anonymous": false,
      "inputs": [
        {
          "indexed": true,
          "internalType": "uint256",
          "name": "fillId",
          "type": "uint256"
        }
      ],
      "name": "FillVolumePublished",
      "type": "event"
    },
    {
      "anonymous": false,
      "inputs": [
        {
          "indexed": true,
          "internalType": "uint256",
          "name": "orderId",
          "type": "uint256"
        },
        {
          "indexed": false,
          "internalType": "uint256",
          "name": "tokenRefunded",
          "type": "uint256"
        }
      ],
      "name": "OrderCancelled",
      "type": "event"
    },
    {
      "anonymous": false,
      "inputs": [
        {
          "indexed": true,
          "internalType": "uint256",
          "name": "orderId",
          "type": "uint256"
        },
        {
          "indexed": true,
          "internalType": "address",
          "name": "maker",
          "type": "address"
        },
        {
          "indexed": false,
          "internalType": "string",
          "name": "tokenPair",
          "type": "string"
        },
        {
          "indexed": false,
          "internalType": "bool",
          "name": "isBuy",
          "type": "bool"
        },
        {
          "indexed": false,
          "internalType": "uint256",
          "name": "tokenDeposit",
          "type": "uint256"
        }
      ],
      "name": "OrderCreated",
      "type": "event"
    },
    {
      "anonymous": false,
      "inputs": [
        {
          "indexed": true,
          "internalType": "uint256",
          "name": "orderId",
          "type": "uint256"
        },
        {
          "indexed": true,
          "internalType": "uint256",
          "name": "fillId",
          "type": "uint256"
        },
        {
          "indexed": false,
          "internalType": "uint256",
          "name": "tokenTransferred",
          "type": "uint256"
        }
      ],
      "name": "OrderFilled",
      "type": "event"
    },
    {
      "anonymous": false,
      "inputs": [
        {
          "indexed": true,
          "internalType": "address",
          "name": "oldOwner",
          "type": "address"
        },
        {
          "indexed": true,
          "internalType": "address",
          "name": "newOwner",
          "type": "address"
        }
      ],
      "name": "OwnershipTransferred",
      "type": "event"
    },
    {
      "inputs": [],
      "name": "auditor",
      "outputs": [
        {
          "internalType": "address",
          "name": "",
          "type": "address"
        }
      ],
      "stateMutability": "view",
      "type": "function"
    },
    {
      "inputs": [
        {
          "internalType": "uint256",
          "name": "orderId",
          "type": "uint256"
        }
      ],
      "name": "cancelOrder",
      "outputs": [],
      "stateMutability": "nonpayable",
      "type": "function"
    },
    {
      "inputs": [],
      "name": "confidentialProtocolId",
      "outputs": [
        {
          "internalType": "uint256",
          "name": "",
          "type": "uint256"
        }
      ],
      "stateMutability": "view",
      "type": "function"
    },
    {
      "inputs": [
        {
          "internalType": "externalEuint64",
          "name": "encPrice",
          "type": "bytes32"
        },
        {
          "internalType": "bytes",
          "name": "priceProof",
          "type": "bytes"
        },
        {
          "internalType": "externalEuint64",
          "name": "encAmount",
          "type": "bytes32"
        },
        {
          "internalType": "bytes",
          "name": "amountProof",
          "type": "bytes"
        },
        {
          "internalType": "bool",
          "name": "isBuy",
          "type": "bool"
        },
        {
          "internalType": "string",
          "name": "tokenPair",
          "type": "string"
        },
        {
          "internalType": "uint256",
          "name": "depositAmount",
          "type": "uint256"
        }
      ],
      "name": "createOrder",
      "outputs": [
        {
          "internalType": "uint256",
          "name": "orderId",
          "type": "uint256"
        }
      ],
      "stateMutability": "nonpayable",
      "type": "function"
    },
    {
      "inputs": [],
      "name": "fillCount",
      "outputs": [
        {
          "internalType": "uint256",
          "name": "",
          "type": "uint256"
        }
      ],
      "stateMutability": "view",
      "type": "function"
    },
    {
      "inputs": [
        {
          "internalType": "uint256",
          "name": "orderId",
          "type": "uint256"
        },
        {
          "internalType": "externalEuint64",
          "name": "encTakerPrice",
          "type": "bytes32"
        },
        {
          "internalType": "bytes",
          "name": "takerPriceProof",
          "type": "bytes"
        },
        {
          "internalType": "externalEuint64",
          "name": "encTakerAmount",
          "type": "bytes32"
        },
        {
          "internalType": "bytes",
          "name": "takerAmountProof",
          "type": "bytes"
        }
      ],
      "name": "fillOrder",
      "outputs": [],
      "stateMutability": "nonpayable",
      "type": "function"
    },
    {
      "inputs": [
        {
          "internalType": "uint256",
          "name": "orderId",
          "type": "uint256"
        }
      ],
      "name": "getAmount",
      "outputs": [
        {
          "internalType": "euint64",
          "name": "",
          "type": "bytes32"
        }
      ],
      "stateMutability": "view",
      "type": "function"
    },
    {
      "inputs": [
        {
          "internalType": "uint256",
          "name": "orderId",
          "type": "uint256"
        }
      ],
      "name": "getEncryptedTaker",
      "outputs": [
        {
          "internalType": "eaddress",
          "name": "",
          "type": "bytes32"
        }
      ],
      "stateMutability": "view",
      "type": "function"
    },
    {
      "inputs": [
        {
          "internalType": "uint256",
          "name": "fillId",
          "type": "uint256"
        }
      ],
      "name": "getFill",
      "outputs": [
        {
          "internalType": "uint256",
          "name": "orderId",
          "type": "uint256"
        },
        {
          "internalType": "uint256",
          "name": "filledAt",
          "type": "uint256"
        },
        {
          "internalType": "uint256",
          "name": "tokenTransferred",
          "type": "uint256"
        }
      ],
      "stateMutability": "view",
      "type": "function"
    },
    {
      "inputs": [
        {
          "internalType": "uint256",
          "name": "fillId",
          "type": "uint256"
        }
      ],
      "name": "getFillAmount",
      "outputs": [
        {
          "internalType": "euint64",
          "name": "",
          "type": "bytes32"
        }
      ],
      "stateMutability": "view",
      "type": "function"
    },
    {
      "inputs": [
        {
          "internalType": "uint256",
          "name": "fillId",
          "type": "uint256"
        }
      ],
      "name": "getFillEncryptedTaker",
      "outputs": [
        {
          "internalType": "eaddress",
          "name": "",
          "type": "bytes32"
        }
      ],
      "stateMutability": "view",
      "type": "function"
    },
    {
      "inputs": [
        {
          "internalType": "uint256",
          "name": "fillId",
          "type": "uint256"
        }
      ],
      "name": "getFillPriorityScore",
      "outputs": [
        {
          "internalType": "euint64",
          "name": "",
          "type": "bytes32"
        }
      ],
      "stateMutability": "view",
      "type": "function"
    },
    {
      "inputs": [
        {
          "internalType": "uint256",
          "name": "fillId",
          "type": "uint256"
        }
      ],
      "name": "getFillTotal",
      "outputs": [
        {
          "internalType": "euint64",
          "name": "",
          "type": "bytes32"
        }
      ],
      "stateMutability": "view",
      "type": "function"
    },
    {
      "inputs": [
        {
          "internalType": "uint256",
          "name": "orderId",
          "type": "uint256"
        }
      ],
      "name": "getOrder",
      "outputs": [
        {
          "internalType": "address",
          "name": "maker",
          "type": "address"
        },
        {
          "internalType": "string",
          "name": "tokenPair",
          "type": "string"
        },
        {
          "internalType": "bool",
          "name": "isBuy",
          "type": "bool"
        },
        {
          "internalType": "enum ConfidentialOTC.Status",
          "name": "status",
          "type": "uint8"
        },
        {
          "internalType": "uint256",
          "name": "createdAt",
          "type": "uint256"
        },
        {
          "internalType": "uint256",
          "name": "tokenDeposit",
          "type": "uint256"
        }
      ],
      "stateMutability": "view",
      "type": "function"
    },
    {
      "inputs": [
        {
          "internalType": "uint256",
          "name": "orderId",
          "type": "uint256"
        }
      ],
      "name": "getOrderFills",
      "outputs": [
        {
          "internalType": "uint256[]",
          "name": "",
          "type": "uint256[]"
        }
      ],
      "stateMutability": "view",
      "type": "function"
    },
    {
      "inputs": [
        {
          "internalType": "uint256",
          "name": "orderId",
          "type": "uint256"
        }
      ],
      "name": "getPrice",
      "outputs": [
        {
          "internalType": "euint64",
          "name": "",
          "type": "bytes32"
        }
      ],
      "stateMutability": "view",
      "type": "function"
    },
    {
      "inputs": [
        {
          "internalType": "uint256",
          "name": "orderId",
          "type": "uint256"
        }
      ],
      "name": "getRemainingAmount",
      "outputs": [
        {
          "internalType": "euint64",
          "name": "",
          "type": "bytes32"
        }
      ],
      "stateMutability": "view",
      "type": "function"
    },
    {
      "inputs": [],
      "name": "getTotalVolume",
      "outputs": [
        {
          "internalType": "euint64",
          "name": "",
          "type": "bytes32"
        }
      ],
      "stateMutability": "view",
      "type": "function"
    },
    {
      "inputs": [
        {
          "internalType": "uint256",
          "name": "orderId",
          "type": "uint256"
        },
        {
          "internalType": "address",
          "name": "viewer",
          "type": "address"
        }
      ],
      "name": "grantAccess",
      "outputs": [],
      "stateMutability": "nonpayable",
      "type": "function"
    },
    {
      "inputs": [
        {
          "internalType": "uint256",
          "name": "orderId",
          "type": "uint256"
        }
      ],
      "name": "grantAuditorAccess",
      "outputs": [],
      "stateMutability": "nonpayable",
      "type": "function"
    },
    {
      "inputs": [],
      "name": "orderCount",
      "outputs": [
        {
          "internalType": "uint256",
          "name": "",
          "type": "uint256"
        }
      ],
      "stateMutability": "view",
      "type": "function"
    },
    {
      "inputs": [],
      "name": "owner",
      "outputs": [
        {
          "internalType": "address",
          "name": "",
          "type": "address"
        }
      ],
      "stateMutability": "view",
      "type": "function"
    },
    {
      "inputs": [],
      "name": "paymentToken",
      "outputs": [
        {
          "internalType": "contract IERC20",
          "name": "",
          "type": "address"
        }
      ],
      "stateMutability": "view",
      "type": "function"
    },
    {
      "inputs": [
        {
          "internalType": "address",
          "name": "newAuditor",
          "type": "address"
        }
      ],
      "name": "setAuditor",
      "outputs": [],
      "stateMutability": "nonpayable",
      "type": "function"
    },
    {
      "inputs": [],
      "name": "totalFillCount",
      "outputs": [
        {
          "internalType": "uint256",
          "name": "",
          "type": "uint256"
        }
      ],
      "stateMutability": "view",
      "type": "function"
    },
    {
      "inputs": [
        {
          "internalType": "address",
          "name": "newOwner",
          "type": "address"
        }
      ],
      "name": "transferOwnership",
      "outputs": [],
      "stateMutability": "nonpayable",
      "type": "function"
    }
  ],
  "transactionHash": "0x19e448cd05f74e45e2a21b85ec16ca5f1b230b0a7a7a5a14e78fafed1c1a0eec",
  "args": [
    "0x1c7D4B196Cb0C7B01d743Fbc6116a902379C7238"
  ],
  "numDeployments": 1,
  "solcInputHash": "de6fa2ae55c3dc22d0df984cf77b22c5",
  "bytecode": "0x608060405234801561000f575f5ffd5b50604051612d75380380612d7583398101604081905261002e91610312565b6100e2610039610163565b80517f9e7b61f58c47dc699ac88507c4f5bb9f121c03808c5676a8078fe583e464970080546001600160a01b03199081166001600160a01b039384161790915560208301517f9e7b61f58c47dc699ac88507c4f5bb9f121c03808c5676a8078fe583e46497018054831691841691909117905560408301517f9e7b61f58c47dc699ac88507c4f5bb9f121c03808c5676a8078fe583e46497028054909216921691909117905550565b6001600160a01b0381166101095760405163d92e233d60e01b815260040160405180910390fd5b5f8054336001600160a01b031991821681178355600180549092166001600160a01b038516179091556040519091907f8be0079c531659141344cd1fd0a4f28419497f9722a3daafe3b4186f6b6457e0908290a35061033f565b604080516060810182525f8082526020820181905291810191909152466001036101fc575060408051606080820183525f8083526020808401829052928401528251908101835273ca2e8f1f656cd25c01f05d0b243ab1ecd4a8ffb6815273d82385dada1ae3e969447f20a3164f6213100e75918101919091527377627828a55156b04ac0dc0eb30467f1a552bb039181019190915290565b4662aa36a70361027b575060408051606080820183525f8083526020808401829052928401528251908101835273f0ffdc93b7e186bc2f8cb3daa75d86d1930a433d81527392c920834ec8941d2c77d188936e1f7a6f49c1279181019190915273be0e383937d564d7ff0bc3b46c51f0bf8d5c311a9181019190915290565b46617a69036102f9575060408051606080820183525f808352602080840182905292840152825190810183527350157cffd6bbfa2dece204a89ec419c23ef5755d815273e3a9105a3a932253a70f126eb1e3b589c643dd249181019190915273901f8942346f7ab3a01f6d7613119bca447bb0309181019190915290565b6040516373cac13b60e01b815260040160405180910390fd5b5f60208284031215610322575f5ffd5b81516001600160a01b0381168114610338575f5ffd5b9392505050565b612a298061034c5f395ff3fe608060405234801561000f575f5ffd5b50600436106101a5575f3560e01c806365dd152c116100e8578063c595a4c311610093578063d841edbe1161006e578063d841edbe1461037b578063e75722301461038e578063f2fde38b146103a1578063f6252ff2146103b4575f5ffd5b8063c595a4c31461031f578063d09ef24114610328578063d36177e21461034d575f5ffd5b80639980ec86116100c35780639980ec86146102d95780639f203255146102ec578063b911d64b146102ff575f5ffd5b806365dd152c146102ac5780638927b030146102bf5780638da5cb5b146102c7575f5ffd5b80633ec045a6116101535780634d1161ea1161012e5780634d1161ea1461026b578063500d022d1461027e578063514fcac7146102915780636051e4dc146102a4575f5ffd5b80633ec045a614610232578063490f904214610245578063491430c914610258575f5ffd5b8063234119fa11610183578063234119fa146101ec5780632453ffa8146101ff5780633013ce2914610207575f5ffd5b806309e7ad3d146101a95780630b4fc2ac146101be5780630b9d98e9146101e4575b5f5ffd5b6101bc6101b736600461247b565b6103c7565b005b6101d16101cc36600461247b565b61047b565b6040519081526020015b60405180910390f35b6006546101d1565b6101bc6101fa3660046124d7565b6104c9565b6003546101d1565b60015461021a906001600160a01b031681565b6040516001600160a01b0390911681526020016101db565b60025461021a906001600160a01b031681565b6101d161025336600461247b565b610635565b6101d161026636600461247b565b610683565b6101d161027936600461247b565b6106d1565b6101d161028c366004612572565b61071f565b6101bc61029f36600461247b565b610a69565b6004546101d1565b6101bc6102ba36600461265c565b610c06565b6101d1610d20565b5f5461021a906001600160a01b031681565b6101d16102e736600461247b565b610d2e565b6101bc6102fa366004612686565b610d7c565b61031261030d36600461247b565b610e2b565b6040516101db919061269f565b6101d160075481565b61033b61033636600461247b565b610ead565b6040516101db96959493929190612723565b61036061035b36600461247b565b610fd0565b604080519384526020840192909252908201526060016101db565b6101d161038936600461247b565b611035565b6101d161039c36600461247b565b611083565b6101bc6103af366004612686565b6110d1565b6101d16103c236600461247b565b61117e565b5f546001600160a01b031633146103f1576040516330cd747160e01b815260040160405180910390fd5b600354811061041357604051635d70603360e01b815260040160405180910390fd5b6002546001600160a01b031661043c5760405163d92e233d60e01b815260040160405180910390fd5b610445816111cc565b61044e8161126e565b60405181907f70c5fb76c9fd62241b2cdb3bafab7631b6e457d5524f0313068372a78e253e93905f90a250565b6004545f90821061049f5760405163ddd0728560e01b815260040160405180910390fd5b600482815481106104b2576104b261277b565b905f5260205f209060070201600301549050919050565b60035487106104eb57604051635d70603360e01b815260040160405180910390fd5b5f600388815481106104ff576104ff61277b565b5f9182526020822060099091020191506006820154610100900460ff16600281111561052d5761052d61270f565b1461054b5760405163206931ef60e01b815260040160405180910390fd5b8054336001600160a01b039091160361057757604051632a3cd12360e21b815260040160405180910390fd5b5f6105b78888888080601f0160208091040260200160405190810160405280939291908181526020018383808284375f9201919091525061134992505050565b90505f6105f98686868080601f0160208091040260200160405190810160405280939291908181526020018383808284375f9201919091525061134992505050565b9050610604826113bc565b5061060e816113bc565b505f61061b8484846113dc565b90506106288b858361156d565b5050505050505050505050565b6004545f9082106106595760405163ddd0728560e01b815260040160405180910390fd5b6004828154811061066c5761066c61277b565b905f5260205f209060070201600201549050919050565b6004545f9082106106a75760405163ddd0728560e01b815260040160405180910390fd5b600482815481106106ba576106ba61277b565b905f5260205f209060070201600401549050919050565b6004545f9082106106f55760405163ddd0728560e01b815260040160405180910390fd5b600482815481106107085761070861277b565b905f5260205f209060070201600101549050919050565b5f815f03610740576040516356316e8760e01b815260040160405180910390fd5b6001546040516323b872dd60e01b8152336004820152306024820152604481018490525f916001600160a01b0316906323b872dd906064016020604051808303815f875af1158015610794573d5f5f3e3d5ffd5b505050506040513d601f19601f820116820180604052508101906107b8919061278f565b9050806107d8576040516312171d8360e31b815260040160405180910390fd5b5f6108188d8d8d8080601f0160208091040260200160405190810160405280939291908181526020018383808284375f9201919091525061134992505050565b90505f61085a8b8b8b8080601f0160208091040260200160405190810160405280939291908181526020018383808284375f9201919091525061134992505050565b9050610865826113bc565b506108708233611939565b5061087a816113bc565b506108858133611939565b5060035493505f6108958161195c565b90506108a081611971565b506003604051806101400160405280336001600160a01b031681526020018581526020018481526020018481526020018381526020018a8a8080601f0160208091040260200160405190810160405280939291908181526020018383808284375f9201829052509385525050508c1515602083015260409091019081524260208083019190915260409182018a90528354600180820186555f958652948290208451600990920201805473ffffffffffffffffffffffffffffffffffffffff19166001600160a01b0390921691909117815590830151938101939093558101516002830155606081015160038301556080810151600483015560a081015190919060058201906109b0908261283a565b5060c082015160068201805491151560ff1983168117825560e08501519261ff001990911661ffff19909116176101008360028111156109f2576109f261270f565b0217905550610100820151816007015561012082015181600801555050336001600160a01b0316857f191eaa6ec4636f6718c17adaa87c71c231cb3794866fd6132fc37d4d97f62f5c8a8a8d8b604051610a4f94939291906128f5565b60405180910390a3505050509a9950505050505050505050565b6003548110610a8b57604051635d70603360e01b815260040160405180910390fd5b5f60038281548110610a9f57610a9f61277b565b5f9182526020822060099091020191506006820154610100900460ff166002811115610acd57610acd61270f565b14610aeb5760405163206931ef60e01b815260040160405180910390fd5b80546001600160a01b03163314610b155760405163b331e42160e01b815260040160405180910390fd5b60068101805461020061ff00199091161790556008810180545f90915560405181815283907faa2a006d186dc89a3d6851834c85d16226329ac40bcad6531a5756a38ed1c90f9060200160405180910390a28015610c015760015460405163a9059cbb60e01b8152336004820152602481018390525f916001600160a01b03169063a9059cbb906044016020604051808303815f875af1158015610bbb573d5f5f3e3d5ffd5b505050506040513d601f19601f82011682018060405250810190610bdf919061278f565b905080610bff576040516312171d8360e31b815260040160405180910390fd5b505b505050565b6003548210610c2857604051635d70603360e01b815260040160405180910390fd5b5f60038381548110610c3c57610c3c61277b565b5f918252602090912060099091020180549091506001600160a01b03163314610c785760405163b331e42160e01b815260040160405180910390fd5b6001600160a01b038216610c9f5760405163d92e233d60e01b815260040160405180910390fd5b610cad816001015483611939565b50610cbc816002015483611939565b50610ccb816003015483611939565b50600481015415610ce657610ce4816004015483611980565b505b6040516001600160a01b0383169084907f3c3a9147a1fc73dd51a32f4d10c43d457e8cb826eb6f35cac6349eb965ba82b4905f90a3505050565b5f610d2961198f565b905090565b6003545f908210610d5257604051635d70603360e01b815260040160405180910390fd5b60038281548110610d6557610d6561277b565b905f5260205f209060090201600201549050919050565b5f546001600160a01b03163314610da6576040516330cd747160e01b815260040160405180910390fd5b6001600160a01b038116610dcd5760405163d92e233d60e01b815260040160405180910390fd5b600280546001600160a01b0383811673ffffffffffffffffffffffffffffffffffffffff19831681179093556040519116919082907fee95d73a44bc51e913c740ca990239220af451f89c3af64524d265f485b86d42905f90a35050565b6003546060908210610e5057604051635d70603360e01b815260040160405180910390fd5b5f8281526005602090815260409182902080548351818402810184019094528084529091830182828015610ea157602002820191905f5260205f20905b815481526020019060010190808311610e8d575b50505050509050919050565b5f60605f5f5f5f6003805490508710610ed957604051635d70603360e01b815260040160405180910390fd5b5f60038881548110610eed57610eed61277b565b5f918252602090912060099091020180546006820154600783015460088401546005850180549596506001600160a01b039094169460ff808516946101009004169291908590610f3c906127be565b80601f0160208091040260200160405190810160405280929190818152602001828054610f68906127be565b8015610fb35780601f10610f8a57610100808354040283529160200191610fb3565b820191905f5260205f20905b815481529060010190602001808311610f9657829003601f168201915b505050505094509650965096509650965096505091939550919395565b5f5f5f6004805490508410610ff85760405163ddd0728560e01b815260040160405180910390fd5b5f6004858154811061100c5761100c61277b565b5f9182526020909120600790910201805460058201546006909201549097919650945092505050565b6003545f90821061105957604051635d70603360e01b815260040160405180910390fd5b6003828154811061106c5761106c61277b565b905f5260205f209060090201600401549050919050565b6003545f9082106110a757604051635d70603360e01b815260040160405180910390fd5b600382815481106110ba576110ba61277b565b905f5260205f209060090201600101549050919050565b5f546001600160a01b031633146110fb576040516330cd747160e01b815260040160405180910390fd5b6001600160a01b0381166111225760405163d92e233d60e01b815260040160405180910390fd5b5f80546001600160a01b0383811673ffffffffffffffffffffffffffffffffffffffff19831681178455604051919092169283917f8be0079c531659141344cd1fd0a4f28419497f9722a3daafe3b4186f6b6457e09190a35050565b6003545f9082106111a257604051635d70603360e01b815260040160405180910390fd5b600382815481106111b5576111b561277b565b905f5260205f209060090201600301549050919050565b5f600382815481106111e0576111e061277b565b5f9182526020909120600990910201600181015460025491925061120c916001600160a01b0316611939565b50600280820154905461122891906001600160a01b0316611939565b50600381015460025461124491906001600160a01b0316611939565b5060048101541561126a576004810154600254610c0191906001600160a01b0316611980565b5050565b5f818152600560205260408120905b8154811015610c01575f600483838154811061129b5761129b61277b565b905f5260205f200154815481106112b4576112b461277b565b5f918252602090912060079091020160018101546002549192506112e0916001600160a01b0316611939565b5060028082015490546112fc91906001600160a01b0316611939565b50600381015460025461131891906001600160a01b0316611939565b5060048101541561134057600481015460025461133e91906001600160a01b0316611980565b505b5060010161127d565b5f81515f146113655761135e838360056119c3565b90506113b6565b825f81900361137f576113775f611abd565b9150506113b6565b6113898133611ad3565b6113b357604051630276b5d960e01b81526004810182905233602482015260440160405180910390fd5b90505b92915050565b5f816113ce576113cb5f611abd565b91505b6113d88230611b5f565b5090565b6114096040518060a001604052805f81526020015f81526020015f81526020015f81526020015f81525090565b5f611418848660010154611bd3565b905061142381611c01565b505f611433848760030154611c10565b905061143e816113bc565b505f6114495f611abd565b9050611454816113bc565b50611460838383611c3e565b80855261146c906113bc565b5061147e8760010154855f0151611c87565b6020850181905261148e906113bc565b505f61149e886003015484611cb5565b90506114a9816113bc565b506114b984828a60030154611c3e565b604086018190526114c9906113bc565b505f6114d9866040015184611ce3565b90506114e481611c01565b505f6114f3875f015185611d11565b90506114fe81611c01565b505f61150a8783611d3f565b905061151581611c01565b5061151e611d6d565b6060890181905261152e906113bc565b506115383361195c565b6080890181905261154890611971565b506115538633611d78565b5061155e8733611d94565b50505050505050509392505050565b6040810151825461158791906001600160a01b0316611939565b506040810151600383015560808101516115a19033611980565b50608081015182546115bc91906001600160a01b0316611980565b5060808101516004830155600654156115e6576115de600654825f0151611da3565b6006556115ec565b80516006555b6115f76006546113bc565b508051825461160f91906001600160a01b0316611939565b50805161161c9033611939565b506020810151825461163791906001600160a01b0316611939565b50611646816020015133611939565b506060810151825461166191906001600160a01b0316611939565b50611670816060015133611939565b506008820180545f9091556006830180546001919061ff001916610100830217905550600480546040805160e08101825287815285516020808301918252878101518385019081526060808a01519085019081526080808b01519086019081524260a0870190815260c087018b81526001808b018c555f9b8c5297516007808c027f8a35acfbc15ff81a39ae7d344fd709f28e8600b4aa8c65c6b64bfe7fe36bd19b81019290925597517f8a35acfbc15ff81a39ae7d344fd709f28e8600b4aa8c65c6b64bfe7fe36bd19c82015594517f8a35acfbc15ff81a39ae7d344fd709f28e8600b4aa8c65c6b64bfe7fe36bd19d86015592517f8a35acfbc15ff81a39ae7d344fd709f28e8600b4aa8c65c6b64bfe7fe36bd19e85015590517f8a35acfbc15ff81a39ae7d344fd709f28e8600b4aa8c65c6b64bfe7fe36bd19f840155517f8a35acfbc15ff81a39ae7d344fd709f28e8600b4aa8c65c6b64bfe7fe36bd1a0830155517f8a35acfbc15ff81a39ae7d344fd709f28e8600b4aa8c65c6b64bfe7fe36bd1a19091015589865260058152928520805492830181558552918420018290558054919261182283612935565b9091555050825161183290611dd1565b5080857fc75938696bc974b3973ac0c1440e2ee3e9240af3b97c884edc4dc153be013e7b8460405161186691815260200190565b60405180910390a360405181907ffe4fedca768f666b284ef8c7b4eeb90181a437108a16868769e360cd7e51b01f905f90a281156119325760015460405163a9059cbb60e01b8152336004820152602481018490525f916001600160a01b03169063a9059cbb906044016020604051808303815f875af11580156118ec573d5f5f3e3d5ffd5b505050506040513d601f19601f82011682018060405250810190611910919061278f565b905080611930576040516312171d8360e31b815260040160405180910390fd5b505b5050505050565b5f8261194b576119485f611abd565b92505b6119558383611b5f565b5090919050565b5f6113b6826001600160a01b03166007611dec565b5f816113ce576113cb5f61195c565b5f8261194b576119485f61195c565b5f4660010361199e5750600190565b4662aa36a7036119af575061271190565b46617a69036119be57505f1990565b505f90565b5f5160206129dd5f395f51905f525460405163045fc19560e11b81525f915f5160206129fd5f395f51905f52916001600160a01b03909116906308bf832a90611a1690889033908990899060040161296d565b6020604051808303815f875af1158015611a32573d5f5f3e3d5ffd5b505050506040513d601f19601f82011682018060405250810190611a5691906129a3565b8154604051630f8e573b60e21b8152600481018390523360248201529193506001600160a01b031690633e395cec906044015f604051808303815f87803b158015611a9f575f5ffd5b505af1158015611ab1573d5f5f3e3d5ffd5b50505050509392505050565b5f6113b68267ffffffffffffffff166005611dec565b5f805f5160206129fd5f395f51905f5280546040516382027b6d60e01b8152600481018790526001600160a01b0386811660248301529293509116906382027b6d90604401602060405180830381865afa158015611b33573d5f5f3e3d5ffd5b505050506040513d601f19601f82011682018060405250810190611b57919061278f565b949350505050565b5f5160206129fd5f395f51905f528054604051635ca4b5b160e11b8152600481018590526001600160a01b0384811660248301529091169063b9496b62906044015b5f604051808303815f87803b158015611bb8575f5ffd5b505af1158015611bca573d5f5f3e3d5ffd5b50505050505050565b5f82611be557611be25f611abd565b92505b81611bf657611bf35f611abd565b91505b6113b383835f611e7b565b5f816113ce576113cb5f611f38565b5f82611c2257611c1f5f611abd565b92505b81611c3357611c305f611abd565b91505b6113b383835f611f53565b5f83611c5057611c4d5f611f38565b93505b82611c6157611c5e5f611abd565b92505b81611c7257611c6f5f611abd565b91505b611c7d848484611fca565b90505b9392505050565b5f82611c9957611c965f611abd565b92505b81611caa57611ca75f611abd565b91505b6113b383835f612060565b5f82611cc757611cc45f611abd565b92505b81611cd857611cd55f611abd565b91505b6113b383835f6120d7565b5f82611cf557611cf25f611abd565b92505b81611d0657611d035f611abd565b91505b6113b383835f61214e565b5f82611d2357611d205f611abd565b92505b81611d3457611d315f611abd565b91505b6113b383835f6121c5565b5f82611d5157611d4e5f611f38565b92505b81611d6257611d5f5f611f38565b91505b6113b383835f61223c565b5f610d2960056122b3565b5f82611d8a57611d875f611abd565b92505b6119558383612340565b5f82611d8a57611d875f611f38565b5f82611db557611db25f611abd565b92505b81611dc657611dc35f611abd565b91505b6113b383835f612386565b5f81611de357611de05f611abd565b91505b6113d8826123fd565b5f5160206129dd5f395f51905f5254604051639cd07acb60e01b81525f915f5160206129fd5f395f51905f52916001600160a01b0390911690639cd07acb90611e3b90879087906004016129ba565b6020604051808303815f875af1158015611e57573d5f5f3e3d5ffd5b505050506040513d601f19601f82011682018060405250810190611b5791906129a3565b5f5f8215611e8e5750600160f81b611e91565b505f5b5f5160206129dd5f395f51905f5254604051631391547f60e01b815260048101879052602481018690526001600160f81b0319831660448201525f5160206129fd5f395f51905f52916001600160a01b031690631391547f906064015b6020604051808303815f875af1158015611f0a573d5f5f3e3d5ffd5b505050506040513d601f19601f82011682018060405250810190611f2e91906129a3565b9695505050505050565b5f6113b682611f47575f611f4a565b60015b60ff165f611dec565b5f5f8215611f665750600160f81b611f69565b505f5b5f5160206129dd5f395f51905f52546040516304559f7160e01b815260048101879052602481018690526001600160f81b0319831660448201525f5160206129fd5f395f51905f52916001600160a01b0316906304559f7190606401611eee565b5f805f5160206129fd5f395f51905f526001810154604051637702dcff60e01b81526004810188905260248101879052604481018690529192506001600160a01b031690637702dcff906064016020604051808303815f875af1158015612033573d5f5f3e3d5ffd5b505050506040513d601f19601f8201168201806040525081019061205791906129a3565b95945050505050565b5f5f82156120735750600160f81b612076565b505f5b5f5160206129dd5f395f51905f5254604051630afe14ad60e31b815260048101879052602481018690526001600160f81b0319831660448201525f5160206129fd5f395f51905f52916001600160a01b0316906357f0a56890606401611eee565b5f5f82156120ea5750600160f81b6120ed565b505f5b5f5160206129dd5f395f51905f52546040516303056db360e31b815260048101879052602481018690526001600160f81b0319831660448201525f5160206129fd5f395f51905f52916001600160a01b03169063182b6d9890606401611eee565b5f5f82156121615750600160f81b612164565b505f5b5f5160206129dd5f395f51905f525460405163f77f3f1d60e01b815260048101879052602481018690526001600160f81b0319831660448201525f5160206129fd5f395f51905f52916001600160a01b03169063f77f3f1d90606401611eee565b5f5f82156121d85750600160f81b6121db565b505f5b5f5160206129dd5f395f51905f52546040516385362ee760e01b815260048101879052602481018690526001600160f81b0319831660448201525f5160206129fd5f395f51905f52916001600160a01b0316906385362ee790606401611eee565b5f5f821561224f5750600160f81b612252565b505f5b5f5160206129dd5f395f51905f525460405163d99882d560e01b815260048101879052602481018690526001600160f81b0319831660448201525f5160206129fd5f395f51905f52916001600160a01b03169063d99882d590606401611eee565b5f5160206129dd5f395f51905f5254604051636baeb74560e11b81525f915f5160206129fd5f395f51905f52916001600160a01b039091169063d75d6e8a906123009086906004016129ce565b6020604051808303815f875af115801561231c573d5f5f3e3d5ffd5b505050506040513d601f19601f82011682018060405250810190611c8091906129a3565b5f5160206129fd5f395f51905f528054604051630f8e573b60e21b8152600481018590526001600160a01b03848116602483015290911690633e395cec90604401611ba1565b5f5f82156123995750600160f81b61239c565b505f5b5f5160206129dd5f395f51905f525460405163022f65e760e31b815260048101879052602481018690526001600160f81b0319831660448201525f5160206129fd5f395f51905f52916001600160a01b03169063117b2f3890606401611eee565b6040805160018082528183019092525f5160206129fd5f395f51905f52915f91906020808301908036833701905050905082815f815181106124415761244161277b565b60209081029190910101528154604051637d6e912360e11b81526001600160a01b039091169063fadd224690611ba190849060040161269f565b5f6020828403121561248b575f5ffd5b5035919050565b5f5f83601f8401126124a2575f5ffd5b50813567ffffffffffffffff8111156124b9575f5ffd5b6020830191508360208285010111156124d0575f5ffd5b9250929050565b5f5f5f5f5f5f5f60a0888a0312156124ed575f5ffd5b8735965060208801359550604088013567ffffffffffffffff811115612511575f5ffd5b61251d8a828b01612492565b90965094505060608801359250608088013567ffffffffffffffff811115612543575f5ffd5b61254f8a828b01612492565b989b979a50959850939692959293505050565b801515811461256f575f5ffd5b50565b5f5f5f5f5f5f5f5f5f5f60e08b8d03121561258b575f5ffd5b8a35995060208b013567ffffffffffffffff8111156125a8575f5ffd5b6125b48d828e01612492565b909a5098505060408b0135965060608b013567ffffffffffffffff8111156125da575f5ffd5b6125e68d828e01612492565b90975095505060808b01356125fa81612562565b935060a08b013567ffffffffffffffff811115612615575f5ffd5b6126218d828e01612492565b9b9e9a9d50989b979a96999598949794969560c090950135949350505050565b80356001600160a01b0381168114612657575f5ffd5b919050565b5f5f6040838503121561266d575f5ffd5b8235915061267d60208401612641565b90509250929050565b5f60208284031215612696575f5ffd5b6113b382612641565b602080825282518282018190525f918401906040840190835b818110156126d65783518352602093840193909201916001016126b8565b509095945050505050565b5f81518084528060208401602086015e5f602082860101526020601f19601f83011685010191505092915050565b634e487b7160e01b5f52602160045260245ffd5b6001600160a01b038716815260c060208201525f61274460c08301886126e1565b905085151560408301526003851061275e5761275e61270f565b8460608301528360808301528260a0830152979650505050505050565b634e487b7160e01b5f52603260045260245ffd5b5f6020828403121561279f575f5ffd5b8151611c8081612562565b634e487b7160e01b5f52604160045260245ffd5b600181811c908216806127d257607f821691505b6020821081036127f057634e487b7160e01b5f52602260045260245ffd5b50919050565b601f821115610c0157805f5260205f20601f840160051c8101602085101561281b5750805b601f840160051c820191505b81811015611932575f8155600101612827565b815167ffffffffffffffff811115612854576128546127aa565b6128688161286284546127be565b846127f6565b6020601f82116001811461289a575f83156128835750848201515b5f19600385901b1c1916600184901b178455611932565b5f84815260208120601f198516915b828110156128c957878501518255602094850194600190920191016128a9565b50848210156128e657868401515f19600387901b60f8161c191681555b50505050600190811b01905550565b60608152836060820152838560808301375f608085830101525f6080601f19601f8701168301019050831515602083015282604083015295945050505050565b5f6001820161295257634e487b7160e01b5f52601160045260245ffd5b5060010190565b605481106129695761296961270f565b9052565b8481526001600160a01b0384166020820152608060408201525f61299460808301856126e1565b90506120576060830184612959565b5f602082840312156129b3575f5ffd5b5051919050565b82815260408101611c806020830184612959565b602081016113b6828461295956fe9e7b61f58c47dc699ac88507c4f5bb9f121c03808c5676a8078fe583e46497019e7b61f58c47dc699ac88507c4f5bb9f121c03808c5676a8078fe583e4649700a164736f6c634300081b000a",
  "devdoc": {
    "author": "Dark Pool Protocol",
    "details": "Uses 14 distinct FHE operations: ge, min, sub, mul, add, select, randEuint64,      eq, gt, makePubliclyDecryptable, asEaddress, asEuint64, allowTransient, and.",
    "kind": "dev",
    "methods": {
      "cancelOrder(uint256)": {
        "params": {
          "orderId": "The ID of the order to cancel"
        }
      },
      "constructor": {
        "params": {
          "_paymentToken": "The ERC20 token address used for escrow (e.g., USDC)"
        }
      },
      "createOrder(bytes32,bytes,bytes32,bytes,bool,string,uint256)": {
        "details": "The maker must have approved this contract to spend `depositAmount` of paymentToken.      Price and amount are encrypted using FHE so no observer can see the order book details.      FHE operations: fromExternal (x2), allowThis (x3), allow (x2), asEaddress",
        "params": {
          "amountProof": "ZK proof for the encrypted amount",
          "depositAmount": "The plaintext amount of ERC20 tokens to escrow",
          "encAmount": "The encrypted total amount/quantity (externalEuint64)",
          "encPrice": "The encrypted price per unit (externalEuint64)",
          "isBuy": "Whether this is a buy or sell order",
          "priceProof": "ZK proof for the encrypted price",
          "tokenPair": "The trading pair identifier (e.g., \"ETH/USDC\")"
        },
        "returns": {
          "orderId": "The ID of the newly created order"
        }
      },
      "fillOrder(uint256,bytes32,bytes,bytes32,bytes)": {
        "details": "This is the core dark pool matching engine. The function is split across      internal helpers to avoid stack-too-deep. See _computeFill and _recordFill.      FHE operations used (14 total):        1. FHE.ge        - Encrypted price comparison        2. FHE.min       - Partial fill calculation        3. FHE.asEuint64 - Create encrypted zero constant        4. FHE.select    - Conditional fill (encrypted ternary)        5. FHE.mul       - Encrypted settlement total        6. FHE.sub       - Update remaining quantity        7. FHE.select    - Conditional remaining update        8. FHE.eq        - Check if fully filled        9. FHE.gt        - Check if fill is positive       10. FHE.and       - Compound boolean logic       11. FHE.randEuint64 - Fair tiebreaking randomness       12. FHE.asEaddress  - Encrypt taker counterparty       13. FHE.add         - Accumulate protocol volume       14. FHE.makePubliclyDecryptable - Post-trade transparency       +   FHE.allowTransient - Gas-optimized transient ACL"
      },
      "grantAccess(uint256,address)": {
        "params": {
          "orderId": "The order to grant access for",
          "viewer": "The address to grant view access to"
        }
      },
      "grantAuditorAccess(uint256)": {
        "params": {
          "orderId": "The order to grant auditor access to"
        }
      },
      "setAuditor(address)": {
        "params": {
          "newAuditor": "The new auditor address"
        }
      },
      "transferOwnership(address)": {
        "params": {
          "newOwner": "The new owner address"
        }
      }
    },
    "title": "ConfidentialOTC - Confidential Dark Pool with Deep FHE Usage",
    "version": 1
  },
  "userdoc": {
    "errors": {
      "SenderNotAllowedToUseHandle(bytes32,address)": [
        {
          "notice": "Returned if the sender is not allowed to use the handle."
        }
      ],
      "ZamaProtocolUnsupported()": [
        {
          "notice": "Returned if the Zama protocol is not supported on the current chain"
        }
      ]
    },
    "events": {
      "AccessGranted(uint256,address)": {
        "notice": "Emitted when a maker grants view access to a third party"
      },
      "AuditorAccessGranted(uint256)": {
        "notice": "Emitted when auditor is granted access to an order"
      },
      "AuditorUpdated(address,address)": {
        "notice": "Emitted when the auditor address is updated"
      },
      "FillVolumePublished(uint256)": {
        "notice": "Emitted when fill volume is made publicly decryptable"
      },
      "OrderCancelled(uint256,uint256)": {
        "notice": "Emitted when an order is cancelled and tokens refunded"
      },
      "OrderCreated(uint256,address,string,bool,uint256)": {
        "notice": "Emitted when a new order is created with token escrow"
      },
      "OrderFilled(uint256,uint256,uint256)": {
        "notice": "Emitted when an order is partially or fully filled"
      },
      "OwnershipTransferred(address,address)": {
        "notice": "Emitted when contract ownership is transferred"
      }
    },
    "kind": "user",
    "methods": {
      "auditor()": {
        "notice": "Compliance auditor who can be granted access to any order/fill"
      },
      "cancelOrder(uint256)": {
        "notice": "Cancel an open order and refund the escrowed tokens to the maker"
      },
      "constructor": {
        "notice": "Deploys the dark pool and sets the deployer as owner"
      },
      "createOrder(bytes32,bytes,bytes32,bytes,bool,string,uint256)": {
        "notice": "Create an OTC order with encrypted price and amount, depositing ERC20 tokens as escrow"
      },
      "fillCount()": {
        "notice": "Returns the total number of fills executed"
      },
      "fillOrder(uint256,bytes32,bytes,bytes32,bytes)": {
        "notice": "Fill an open order with encrypted price matching and partial fill support"
      },
      "getAmount(uint256)": {
        "notice": "Get the encrypted amount handle"
      },
      "getEncryptedTaker(uint256)": {
        "notice": "Get the encrypted taker address handle for an order"
      },
      "getFill(uint256)": {
        "notice": "Get public fields of a fill"
      },
      "getFillAmount(uint256)": {
        "notice": "Get the encrypted fill amount handle"
      },
      "getFillEncryptedTaker(uint256)": {
        "notice": "Get the encrypted taker address from a fill"
      },
      "getFillPriorityScore(uint256)": {
        "notice": "Get the encrypted priority score for fair tiebreaking"
      },
      "getFillTotal(uint256)": {
        "notice": "Get the encrypted settlement total handle"
      },
      "getOrder(uint256)": {
        "notice": "Get public (non-encrypted) fields of an order"
      },
      "getOrderFills(uint256)": {
        "notice": "Get the list of fill IDs for a given order"
      },
      "getPrice(uint256)": {
        "notice": "Get the encrypted price handle"
      },
      "getRemainingAmount(uint256)": {
        "notice": "Get the encrypted remaining amount handle"
      },
      "getTotalVolume()": {
        "notice": "Get the encrypted total protocol volume handle"
      },
      "grantAccess(uint256,address)": {
        "notice": "Maker grants a specific address permission to decrypt order fields"
      },
      "grantAuditorAccess(uint256)": {
        "notice": "Grant the auditor access to decrypt all fields of an order and its fills"
      },
      "orderCount()": {
        "notice": "Returns the total number of orders created"
      },
      "owner()": {
        "notice": "Contract owner (deployer)"
      },
      "paymentToken()": {
        "notice": "ERC20 payment token used for escrow (e.g., USDC)"
      },
      "setAuditor(address)": {
        "notice": "Set the compliance auditor address (owner only)"
      },
      "totalFillCount()": {
        "notice": "Total number of fills executed"
      },
      "transferOwnership(address)": {
        "notice": "Transfer ownership of the contract"
      }
    },
    "notice": "A fully encrypted OTC dark pool where prices, amounts, and counterparties are         hidden using Fully Homomorphic Encryption. Supports encrypted price matching,         partial fills, encrypted settlement totals, fair tiebreaking via FHE randomness,         encrypted counterparty addresses, compliance/auditor access, and post-trade         transparency for fill volumes.",
    "version": 1
  },
  "storageLayout": {
    "storage": [
      {
        "astId": 42288,
        "contract": "contracts/ConfidentialOTC.sol:ConfidentialOTC",
        "label": "owner",
        "offset": 0,
        "slot": "0",
        "type": "t_address"
      },
      {
        "astId": 42292,
        "contract": "contracts/ConfidentialOTC.sol:ConfidentialOTC",
        "label": "paymentToken",
        "offset": 0,
        "slot": "1",
        "type": "t_contract(IERC20)42213"
      },
      {
        "astId": 42295,
        "contract": "contracts/ConfidentialOTC.sol:ConfidentialOTC",
        "label": "auditor",
        "offset": 0,
        "slot": "2",
        "type": "t_address"
      },
      {
        "astId": 42300,
        "contract": "contracts/ConfidentialOTC.sol:ConfidentialOTC",
        "label": "_orders",
        "offset": 0,
        "slot": "3",
        "type": "t_array(t_struct(Order)42248_storage)dyn_storage"
      },
      {
        "astId": 42305,
        "contract": "contracts/ConfidentialOTC.sol:ConfidentialOTC",
        "label": "_fills",
        "offset": 0,
        "slot": "4",
        "type": "t_array(t_struct(Fill)42268_storage)dyn_storage"
      },
      {
        "astId": 42311,
        "contract": "contracts/ConfidentialOTC.sol:ConfidentialOTC",
        "label": "_orderFills",
        "offset": 0,
        "slot": "5",
        "type": "t_mapping(t_uint256,t_array(t_uint256)dyn_storage)"
      },
      {
        "astId": 42315,
        "contract": "contracts/ConfidentialOTC.sol:ConfidentialOTC",
        "label": "_totalVolume",
        "offset": 0,
        "slot": "6",
        "type": "t_userDefinedValueType(euint64)43992"
      },
      {
        "astId": 42318,
        "contract": "contracts/ConfidentialOTC.sol:ConfidentialOTC",
        "label": "totalFillCount",
        "offset": 0,
        "slot": "7",
        "type": "t_uint256"
      }
    ],
    "types": {
      "t_address": {
        "encoding": "inplace",
        "label": "address",
        "numberOfBytes": "20"
      },
      "t_array(t_struct(Fill)42268_storage)dyn_storage": {
        "base": "t_struct(Fill)42268_storage",
        "encoding": "dynamic_array",
        "label": "struct ConfidentialOTC.Fill[]",
        "numberOfBytes": "32"
      },
      "t_array(t_struct(Order)42248_storage)dyn_storage": {
        "base": "t_struct(Order)42248_storage",
        "encoding": "dynamic_array",
        "label": "struct ConfidentialOTC.Order[]",
        "numberOfBytes": "32"
      },
      "t_array(t_uint256)dyn_storage": {
        "base": "t_uint256",
        "encoding": "dynamic_array",
        "label": "uint256[]",
        "numberOfBytes": "32"
      },
      "t_bool": {
        "encoding": "inplace",
        "label": "bool",
        "numberOfBytes": "1"
      },
      "t_contract(IERC20)42213": {
        "encoding": "inplace",
        "label": "contract IERC20",
        "numberOfBytes": "20"
      },
      "t_enum(Status)42221": {
        "encoding": "inplace",
        "label": "enum ConfidentialOTC.Status",
        "numberOfBytes": "1"
      },
      "t_mapping(t_uint256,t_array(t_uint256)dyn_storage)": {
        "encoding": "mapping",
        "key": "t_uint256",
        "label": "mapping(uint256 => uint256[])",
        "numberOfBytes": "32",
        "value": "t_array(t_uint256)dyn_storage"
      },
      "t_string_storage": {
        "encoding": "bytes",
        "label": "string",
        "numberOfBytes": "32"
      },
      "t_struct(Fill)42268_storage": {
        "encoding": "inplace",
        "label": "struct ConfidentialOTC.Fill",
        "members": [
          {
            "astId": 42251,
            "contract": "contracts/ConfidentialOTC.sol:ConfidentialOTC",
            "label": "orderId",
            "offset": 0,
            "slot": "0",
            "type": "t_uint256"
          },
          {
            "astId": 42254,
            "contract": "contracts/ConfidentialOTC.sol:ConfidentialOTC",
            "label": "fillAmount",
            "offset": 0,
            "slot": "1",
            "type": "t_userDefinedValueType(euint64)43992"
          },
          {
            "astId": 42257,
            "contract": "contracts/ConfidentialOTC.sol:ConfidentialOTC",
            "label": "fillTotal",
            "offset": 0,
            "slot": "2",
            "type": "t_userDefinedValueType(euint64)43992"
          },
          {
            "astId": 42260,
            "contract": "contracts/ConfidentialOTC.sol:ConfidentialOTC",
            "label": "priorityScore",
            "offset": 0,
            "slot": "3",
            "type": "t_userDefinedValueType(euint64)43992"
          },
          {
            "astId": 42263,
            "contract": "contracts/ConfidentialOTC.sol:ConfidentialOTC",
            "label": "encryptedTaker",
            "offset": 0,
            "slot": "4",
            "type": "t_userDefinedValueType(eaddress)44106"
          },
          {
            "astId": 42265,
            "contract": "contracts/ConfidentialOTC.sol:ConfidentialOTC",
            "label": "filledAt",
            "offset": 0,
            "slot": "5",
            "type": "t_uint256"
          },
          {
            "astId": 42267,
            "contract": "contracts/ConfidentialOTC.sol:ConfidentialOTC",
            "label": "tokenTransferred",
            "offset": 0,
            "slot": "6",
            "type": "t_uint256"
          }
        ],
        "numberOfBytes": "224"
      },
      "t_struct(Order)42248_storage": {
        "encoding": "inplace",
        "label": "struct ConfidentialOTC.Order",
        "members": [
          {
            "astId": 42224,
            "contract": "contracts/ConfidentialOTC.sol:ConfidentialOTC",
            "label": "maker",
            "offset": 0,
            "slot": "0",
            "type": "t_address"
          },
          {
            "astId": 42227,
            "contract": "contracts/ConfidentialOTC.sol:ConfidentialOTC",
            "label": "price",
            "offset": 0,
            "slot": "1",
            "type": "t_userDefinedValueType(euint64)43992"
          },
          {
            "astId": 42230,
            "contract": "contracts/ConfidentialOTC.sol:ConfidentialOTC",
            "label": "amount",
            "offset": 0,
            "slot": "2",
            "type": "t_userDefinedValueType(euint64)43992"
          },
          {
            "astId": 42233,
            "contract": "contracts/ConfidentialOTC.sol:ConfidentialOTC",
            "label": "remainingAmount",
            "offset": 0,
            "slot": "3",
            "type": "t_userDefinedValueType(euint64)43992"
          },
          {
            "astId": 42236,
            "contract": "contracts/ConfidentialOTC.sol:ConfidentialOTC",
            "label": "encryptedTaker",
            "offset": 0,
            "slot": "4",
            "type": "t_userDefinedValueType(eaddress)44106"
          },
          {
            "astId": 42238,
            "contract": "contracts/ConfidentialOTC.sol:ConfidentialOTC",
            "label": "tokenPair",
            "offset": 0,
            "slot": "5",
            "type": "t_string_storage"
          },
          {
            "astId": 42240,
            "contract": "contracts/ConfidentialOTC.sol:ConfidentialOTC",
            "label": "isBuy",
            "offset": 0,
            "slot": "6",
            "type": "t_bool"
          },
          {
            "astId": 42243,
            "contract": "contracts/ConfidentialOTC.sol:ConfidentialOTC",
            "label": "status",
            "offset": 1,
            "slot": "6",
            "type": "t_enum(Status)42221"
          },
          {
            "astId": 42245,
            "contract": "contracts/ConfidentialOTC.sol:ConfidentialOTC",
            "label": "createdAt",
            "offset": 0,
            "slot": "7",
            "type": "t_uint256"
          },
          {
            "astId": 42247,
            "contract": "contracts/ConfidentialOTC.sol:ConfidentialOTC",
            "label": "tokenDeposit",
            "offset": 0,
            "slot": "8",
            "type": "t_uint256"
          }
        ],
        "numberOfBytes": "288"
      },
      "t_uint256": {
        "encoding": "inplace",
        "label": "uint256",
        "numberOfBytes": "32"
      },
      "t_userDefinedValueType(eaddress)44106": {
        "encoding": "inplace",
        "label": "eaddress",
        "numberOfBytes": "32"
      },
      "t_userDefinedValueType(euint64)43992": {
        "encoding": "inplace",
        "label": "euint64",
        "numberOfBytes": "32"
      }
    }
  }
}