{
  "address": "0xf98f581dA51AD77B0e6d164fCB7666bFFe7a24EE",
  "abi": [
    {
      "inputs": [
        {
          "internalType": "address",
          "name": "_paymentToken",
          "type": "address"
        }
      ],
      "stateMutability": "nonpayable",
      "type": "constructor"
    },
    {
      "inputs": [],
      "name": "EthTransferFailed",
      "type": "error"
    },
    {
      "inputs": [],
      "name": "InsufficientRemaining",
      "type": "error"
    },
    {
      "inputs": [],
      "name": "InvalidDepositType",
      "type": "error"
    },
    {
      "inputs": [],
      "name": "InvalidFillId",
      "type": "error"
    },
    {
      "inputs": [],
      "name": "InvalidOrderId",
      "type": "error"
    },
    {
      "inputs": [],
      "name": "MakerCannotFill",
      "type": "error"
    },
    {
      "inputs": [],
      "name": "NotMaker",
      "type": "error"
    },
    {
      "inputs": [],
      "name": "NotOwner",
      "type": "error"
    },
    {
      "inputs": [],
      "name": "OrderNotOpen",
      "type": "error"
    },
    {
      "inputs": [
        {
          "internalType": "bytes32",
          "name": "handle",
          "type": "bytes32"
        },
        {
          "internalType": "address",
          "name": "sender",
          "type": "address"
        }
      ],
      "name": "SenderNotAllowedToUseHandle",
      "type": "error"
    },
    {
      "inputs": [],
      "name": "TransferFailed",
      "type": "error"
    },
    {
      "inputs": [],
      "name": "ZamaProtocolUnsupported",
      "type": "error"
    },
    {
      "inputs": [],
      "name": "ZeroAddress",
      "type": "error"
    },
    {
      "inputs": [],
      "name": "ZeroDeposit",
      "type": "error"
    },
    {
      "anonymous": false,
      "inputs": [
        {
          "indexed": true,
          "internalType": "uint256",
          "name": "orderId",
          "type": "uint256"
        },
        {
          "indexed": true,
          "internalType": "address",
          "name": "viewer",
          "type": "address"
        }
      ],
      "name": "AccessGranted",
      "type": "event"
    },
    {
      "anonymous": false,
      "inputs": [
        {
          "indexed": true,
          "internalType": "uint256",
          "name": "orderId",
          "type": "uint256"
        }
      ],
      "name": "AuditorAccessGranted",
      "type": "event"
    },
    {
      "anonymous": false,
      "inputs": [
        {
          "indexed": true,
          "internalType": "address",
          "name": "oldAuditor",
          "type": "address"
        },
        {
          "indexed": true,
          "internalType": "address",
          "name": "newAuditor",
          "type": "address"
        }
      ],
      "name": "AuditorUpdated",
      "type": "event"
    },
    {
      "anonymous": false,
      "inputs": [
        {
          "indexed": true,
          "internalType": "uint256",
          "name": "fillId",
          "type": "uint256"
        }
      ],
      "name": "FillVolumePublished",
      "type": "event"
    },
    {
      "anonymous": false,
      "inputs": [
        {
          "indexed": true,
          "internalType": "uint256",
          "name": "orderId",
          "type": "uint256"
        },
        {
          "indexed": false,
          "internalType": "uint256",
          "name": "ethRefunded",
          "type": "uint256"
        },
        {
          "indexed": false,
          "internalType": "uint256",
          "name": "tokenRefunded",
          "type": "uint256"
        }
      ],
      "name": "OrderCancelled",
      "type": "event"
    },
    {
      "anonymous": false,
      "inputs": [
        {
          "indexed": true,
          "internalType": "uint256",
          "name": "orderId",
          "type": "uint256"
        },
        {
          "indexed": true,
          "internalType": "address",
          "name": "maker",
          "type": "address"
        },
        {
          "indexed": false,
          "internalType": "string",
          "name": "tokenPair",
          "type": "string"
        },
        {
          "indexed": false,
          "internalType": "bool",
          "name": "isBuy",
          "type": "bool"
        },
        {
          "indexed": false,
          "internalType": "uint256",
          "name": "ethDeposit",
          "type": "uint256"
        },
        {
          "indexed": false,
          "internalType": "uint256",
          "name": "tokenDeposit",
          "type": "uint256"
        }
      ],
      "name": "OrderCreated",
      "type": "event"
    },
    {
      "anonymous": false,
      "inputs": [
        {
          "indexed": true,
          "internalType": "uint256",
          "name": "orderId",
          "type": "uint256"
        },
        {
          "indexed": true,
          "internalType": "uint256",
          "name": "fillId",
          "type": "uint256"
        },
        {
          "indexed": false,
          "internalType": "uint256",
          "name": "ethTransferred",
          "type": "uint256"
        },
        {
          "indexed": false,
          "internalType": "uint256",
          "name": "tokenTransferred",
          "type": "uint256"
        }
      ],
      "name": "OrderFilled",
      "type": "event"
    },
    {
      "anonymous": false,
      "inputs": [
        {
          "indexed": true,
          "internalType": "address",
          "name": "oldOwner",
          "type": "address"
        },
        {
          "indexed": true,
          "internalType": "address",
          "name": "newOwner",
          "type": "address"
        }
      ],
      "name": "OwnershipTransferred",
      "type": "event"
    },
    {
      "inputs": [],
      "name": "auditor",
      "outputs": [
        {
          "internalType": "address",
          "name": "",
          "type": "address"
        }
      ],
      "stateMutability": "view",
      "type": "function"
    },
    {
      "inputs": [
        {
          "internalType": "uint256",
          "name": "orderId",
          "type": "uint256"
        }
      ],
      "name": "cancelOrder",
      "outputs": [],
      "stateMutability": "nonpayable",
      "type": "function"
    },
    {
      "inputs": [],
      "name": "confidentialProtocolId",
      "outputs": [
        {
          "internalType": "uint256",
          "name": "",
          "type": "uint256"
        }
      ],
      "stateMutability": "view",
      "type": "function"
    },
    {
      "inputs": [
        {
          "internalType": "externalEuint64",
          "name": "encPrice",
          "type": "bytes32"
        },
        {
          "internalType": "bytes",
          "name": "priceProof",
          "type": "bytes"
        },
        {
          "internalType": "externalEuint64",
          "name": "encAmount",
          "type": "bytes32"
        },
        {
          "internalType": "bytes",
          "name": "amountProof",
          "type": "bytes"
        },
        {
          "internalType": "bool",
          "name": "isBuy",
          "type": "bool"
        },
        {
          "internalType": "string",
          "name": "tokenPair",
          "type": "string"
        },
        {
          "internalType": "uint256",
          "name": "usdcDeposit",
          "type": "uint256"
        }
      ],
      "name": "createOrder",
      "outputs": [
        {
          "internalType": "uint256",
          "name": "orderId",
          "type": "uint256"
        }
      ],
      "stateMutability": "payable",
      "type": "function"
    },
    {
      "inputs": [],
      "name": "fillCount",
      "outputs": [
        {
          "internalType": "uint256",
          "name": "",
          "type": "uint256"
        }
      ],
      "stateMutability": "view",
      "type": "function"
    },
    {
      "inputs": [
        {
          "internalType": "uint256",
          "name": "orderId",
          "type": "uint256"
        },
        {
          "internalType": "externalEuint64",
          "name": "encTakerPrice",
          "type": "bytes32"
        },
        {
          "internalType": "bytes",
          "name": "takerPriceProof",
          "type": "bytes"
        },
        {
          "internalType": "externalEuint64",
          "name": "encTakerAmount",
          "type": "bytes32"
        },
        {
          "internalType": "bytes",
          "name": "takerAmountProof",
          "type": "bytes"
        },
        {
          "internalType": "uint256",
          "name": "takerEthAmount",
          "type": "uint256"
        },
        {
          "internalType": "uint256",
          "name": "takerUsdcAmount",
          "type": "uint256"
        }
      ],
      "name": "fillOrder",
      "outputs": [],
      "stateMutability": "payable",
      "type": "function"
    },
    {
      "inputs": [
        {
          "internalType": "uint256",
          "name": "orderId",
          "type": "uint256"
        }
      ],
      "name": "getAmount",
      "outputs": [
        {
          "internalType": "euint64",
          "name": "",
          "type": "bytes32"
        }
      ],
      "stateMutability": "view",
      "type": "function"
    },
    {
      "inputs": [
        {
          "internalType": "uint256",
          "name": "orderId",
          "type": "uint256"
        }
      ],
      "name": "getEncryptedTaker",
      "outputs": [
        {
          "internalType": "eaddress",
          "name": "",
          "type": "bytes32"
        }
      ],
      "stateMutability": "view",
      "type": "function"
    },
    {
      "inputs": [
        {
          "internalType": "uint256",
          "name": "fillId",
          "type": "uint256"
        }
      ],
      "name": "getFill",
      "outputs": [
        {
          "internalType": "uint256",
          "name": "orderId",
          "type": "uint256"
        },
        {
          "internalType": "uint256",
          "name": "filledAt",
          "type": "uint256"
        },
        {
          "internalType": "uint256",
          "name": "ethTransferred",
          "type": "uint256"
        },
        {
          "internalType": "uint256",
          "name": "tokenTransferred",
          "type": "uint256"
        }
      ],
      "stateMutability": "view",
      "type": "function"
    },
    {
      "inputs": [
        {
          "internalType": "uint256",
          "name": "fillId",
          "type": "uint256"
        }
      ],
      "name": "getFillAmount",
      "outputs": [
        {
          "internalType": "euint64",
          "name": "",
          "type": "bytes32"
        }
      ],
      "stateMutability": "view",
      "type": "function"
    },
    {
      "inputs": [
        {
          "internalType": "uint256",
          "name": "fillId",
          "type": "uint256"
        }
      ],
      "name": "getFillEncryptedTaker",
      "outputs": [
        {
          "internalType": "eaddress",
          "name": "",
          "type": "bytes32"
        }
      ],
      "stateMutability": "view",
      "type": "function"
    },
    {
      "inputs": [
        {
          "internalType": "uint256",
          "name": "fillId",
          "type": "uint256"
        }
      ],
      "name": "getFillPriorityScore",
      "outputs": [
        {
          "internalType": "euint64",
          "name": "",
          "type": "bytes32"
        }
      ],
      "stateMutability": "view",
      "type": "function"
    },
    {
      "inputs": [
        {
          "internalType": "uint256",
          "name": "fillId",
          "type": "uint256"
        }
      ],
      "name": "getFillTotal",
      "outputs": [
        {
          "internalType": "euint64",
          "name": "",
          "type": "bytes32"
        }
      ],
      "stateMutability": "view",
      "type": "function"
    },
    {
      "inputs": [],
      "name": "getMyFills",
      "outputs": [
        {
          "internalType": "uint256[]",
          "name": "",
          "type": "uint256[]"
        }
      ],
      "stateMutability": "view",
      "type": "function"
    },
    {
      "inputs": [
        {
          "internalType": "uint256",
          "name": "orderId",
          "type": "uint256"
        }
      ],
      "name": "getOrder",
      "outputs": [
        {
          "internalType": "address",
          "name": "maker",
          "type": "address"
        },
        {
          "internalType": "string",
          "name": "tokenPair",
          "type": "string"
        },
        {
          "internalType": "bool",
          "name": "isBuy",
          "type": "bool"
        },
        {
          "internalType": "enum ConfidentialOTC.Status",
          "name": "status",
          "type": "uint8"
        },
        {
          "internalType": "uint256",
          "name": "createdAt",
          "type": "uint256"
        },
        {
          "internalType": "uint256",
          "name": "ethDeposit",
          "type": "uint256"
        },
        {
          "internalType": "uint256",
          "name": "tokenDeposit",
          "type": "uint256"
        },
        {
          "internalType": "uint256",
          "name": "ethRemaining",
          "type": "uint256"
        },
        {
          "internalType": "uint256",
          "name": "tokenRemaining",
          "type": "uint256"
        }
      ],
      "stateMutability": "view",
      "type": "function"
    },
    {
      "inputs": [
        {
          "internalType": "uint256",
          "name": "orderId",
          "type": "uint256"
        }
      ],
      "name": "getOrderFills",
      "outputs": [
        {
          "internalType": "uint256[]",
          "name": "",
          "type": "uint256[]"
        }
      ],
      "stateMutability": "view",
      "type": "function"
    },
    {
      "inputs": [
        {
          "internalType": "uint256",
          "name": "orderId",
          "type": "uint256"
        }
      ],
      "name": "getPrice",
      "outputs": [
        {
          "internalType": "euint64",
          "name": "",
          "type": "bytes32"
        }
      ],
      "stateMutability": "view",
      "type": "function"
    },
    {
      "inputs": [
        {
          "internalType": "uint256",
          "name": "orderId",
          "type": "uint256"
        }
      ],
      "name": "getRemainingAmount",
      "outputs": [
        {
          "internalType": "euint64",
          "name": "",
          "type": "bytes32"
        }
      ],
      "stateMutability": "view",
      "type": "function"
    },
    {
      "inputs": [],
      "name": "getTotalVolume",
      "outputs": [
        {
          "internalType": "euint64",
          "name": "",
          "type": "bytes32"
        }
      ],
      "stateMutability": "view",
      "type": "function"
    },
    {
      "inputs": [
        {
          "internalType": "uint256",
          "name": "orderId",
          "type": "uint256"
        },
        {
          "internalType": "address",
          "name": "viewer",
          "type": "address"
        }
      ],
      "name": "grantAccess",
      "outputs": [],
      "stateMutability": "nonpayable",
      "type": "function"
    },
    {
      "inputs": [
        {
          "internalType": "uint256",
          "name": "orderId",
          "type": "uint256"
        }
      ],
      "name": "grantAuditorAccess",
      "outputs": [],
      "stateMutability": "nonpayable",
      "type": "function"
    },
    {
      "inputs": [],
      "name": "orderCount",
      "outputs": [
        {
          "internalType": "uint256",
          "name": "",
          "type": "uint256"
        }
      ],
      "stateMutability": "view",
      "type": "function"
    },
    {
      "inputs": [],
      "name": "owner",
      "outputs": [
        {
          "internalType": "address",
          "name": "",
          "type": "address"
        }
      ],
      "stateMutability": "view",
      "type": "function"
    },
    {
      "inputs": [],
      "name": "paymentToken",
      "outputs": [
        {
          "internalType": "contract IERC20",
          "name": "",
          "type": "address"
        }
      ],
      "stateMutability": "view",
      "type": "function"
    },
    {
      "inputs": [
        {
          "internalType": "address",
          "name": "newAuditor",
          "type": "address"
        }
      ],
      "name": "setAuditor",
      "outputs": [],
      "stateMutability": "nonpayable",
      "type": "function"
    },
    {
      "inputs": [],
      "name": "totalFillCount",
      "outputs": [
        {
          "internalType": "uint256",
          "name": "",
          "type": "uint256"
        }
      ],
      "stateMutability": "view",
      "type": "function"
    },
    {
      "inputs": [
        {
          "internalType": "address",
          "name": "newOwner",
          "type": "address"
        }
      ],
      "name": "transferOwnership",
      "outputs": [],
      "stateMutability": "nonpayable",
      "type": "function"
    },
    {
      "stateMutability": "payable",
      "type": "receive"
    }
  ],
  "transactionHash": "0x90eaa6989d9046bb5734d7627227eaeabe16041456cd8d55dd12d6dda4f61855",
  "args": [
    "0x1c7D4B196Cb0C7B01d743Fbc6116a902379C7238"
  ],
  "numDeployments": 1,
  "solcInputHash": "4c25d8f76962b47b747d4ba867d29819",
  "bytecode": "0x608060405234801561000f575f5ffd5b5060405161345138038061345183398101604081905261002e91610312565b6100e2610039610163565b80517f9e7b61f58c47dc699ac88507c4f5bb9f121c03808c5676a8078fe583e464970080546001600160a01b03199081166001600160a01b039384161790915560208301517f9e7b61f58c47dc699ac88507c4f5bb9f121c03808c5676a8078fe583e46497018054831691841691909117905560408301517f9e7b61f58c47dc699ac88507c4f5bb9f121c03808c5676a8078fe583e46497028054909216921691909117905550565b6001600160a01b0381166101095760405163d92e233d60e01b815260040160405180910390fd5b5f8054336001600160a01b031991821681178355600180549092166001600160a01b038516179091556040519091907f8be0079c531659141344cd1fd0a4f28419497f9722a3daafe3b4186f6b6457e0908290a35061033f565b604080516060810182525f8082526020820181905291810191909152466001036101fc575060408051606080820183525f8083526020808401829052928401528251908101835273ca2e8f1f656cd25c01f05d0b243ab1ecd4a8ffb6815273d82385dada1ae3e969447f20a3164f6213100e75918101919091527377627828a55156b04ac0dc0eb30467f1a552bb039181019190915290565b4662aa36a70361027b575060408051606080820183525f8083526020808401829052928401528251908101835273f0ffdc93b7e186bc2f8cb3daa75d86d1930a433d81527392c920834ec8941d2c77d188936e1f7a6f49c1279181019190915273be0e383937d564d7ff0bc3b46c51f0bf8d5c311a9181019190915290565b46617a69036102f9575060408051606080820183525f808352602080840182905292840152825190810183527350157cffd6bbfa2dece204a89ec419c23ef5755d815273e3a9105a3a932253a70f126eb1e3b589c643dd249181019190915273901f8942346f7ab3a01f6d7613119bca447bb0309181019190915290565b6040516373cac13b60e01b815260040160405180910390fd5b5f60208284031215610322575f5ffd5b81516001600160a01b0381168114610338575f5ffd5b9392505050565b6131058061034c5f395ff3fe6080604052600436106101a7575f3560e01c806365dd152c116100e7578063c595a4c311610087578063d841edbe11610062578063d841edbe14610490578063e7572230146104af578063f2fde38b146104ce578063f6252ff2146104ed575f5ffd5b8063c595a4c314610408578063d09ef2411461041d578063d36177e214610451575f5ffd5b80638da5cb5b116100c25780638da5cb5b1461038d5780639980ec86146103ab5780639f203255146103ca578063b911d64b146103e9575f5ffd5b806365dd152c146103395780636c4b8030146103585780638927b03014610379575f5ffd5b8063490f904211610152578063500d022d1161012d578063500d022d146102e0578063512cc4fc146102f3578063514fcac7146103065780636051e4dc14610325575f5ffd5b8063490f904214610283578063491430c9146102a25780634d1161ea146102c1575f5ffd5b80632453ffa8116101825780632453ffa8146102195780633013ce291461022d5780633ec045a614610264575f5ffd5b806309e7ad3d146101b25780630b4fc2ac146101d35780630b9d98e914610205575f5ffd5b366101ae57005b5f5ffd5b3480156101bd575f5ffd5b506101d16101cc366004612b0f565b61050c565b005b3480156101de575f5ffd5b506101f26101ed366004612b0f565b6105c0565b6040519081526020015b60405180910390f35b348015610210575f5ffd5b506007546101f2565b348015610224575f5ffd5b506003546101f2565b348015610238575f5ffd5b5060015461024c906001600160a01b031681565b6040516001600160a01b0390911681526020016101fc565b34801561026f575f5ffd5b5060025461024c906001600160a01b031681565b34801561028e575f5ffd5b506101f261029d366004612b0f565b61060e565b3480156102ad575f5ffd5b506101f26102bc366004612b0f565b61065c565b3480156102cc575f5ffd5b506101f26102db366004612b0f565b6106aa565b6101f26102ee366004612b7b565b6106f8565b6101d1610301366004612c4a565b610aee565b348015610311575f5ffd5b506101d1610320366004612b0f565b610d78565b348015610330575f5ffd5b506004546101f2565b348015610344575f5ffd5b506101d1610353366004612d01565b610f94565b348015610363575f5ffd5b5061036c6110ae565b6040516101fc9190612d2b565b348015610384575f5ffd5b506101f261110c565b348015610398575f5ffd5b505f5461024c906001600160a01b031681565b3480156103b6575f5ffd5b506101f26103c5366004612b0f565b61111a565b3480156103d5575f5ffd5b506101d16103e4366004612d6d565b611168565b3480156103f4575f5ffd5b5061036c610403366004612b0f565b611217565b348015610413575f5ffd5b506101f260085481565b348015610428575f5ffd5b5061043c610437366004612b0f565b611299565b6040516101fc99989796959493929190612dc8565b34801561045c575f5ffd5b5061047061046b366004612b0f565b6113db565b6040805194855260208501939093529183015260608201526080016101fc565b34801561049b575f5ffd5b506101f26104aa366004612b0f565b611449565b3480156104ba575f5ffd5b506101f26104c9366004612b0f565b611497565b3480156104d9575f5ffd5b506101d16104e8366004612d6d565b6114e5565b3480156104f8575f5ffd5b506101f2610507366004612b0f565b611592565b5f546001600160a01b03163314610536576040516330cd747160e01b815260040160405180910390fd5b600354811061055857604051635d70603360e01b815260040160405180910390fd5b6002546001600160a01b03166105815760405163d92e233d60e01b815260040160405180910390fd5b61058a816115e0565b61059381611684565b60405181907f70c5fb76c9fd62241b2cdb3bafab7631b6e457d5524f0313068372a78e253e93905f90a250565b6004545f9082106105e45760405163ddd0728560e01b815260040160405180910390fd5b600482815481106105f7576105f7612e38565b905f5260205f209060080201600301549050919050565b6004545f9082106106325760405163ddd0728560e01b815260040160405180910390fd5b6004828154811061064557610645612e38565b905f5260205f209060080201600201549050919050565b6004545f9082106106805760405163ddd0728560e01b815260040160405180910390fd5b6004828154811061069357610693612e38565b905f5260205f209060080201600401549050919050565b6004545f9082106106ce5760405163ddd0728560e01b815260040160405180910390fd5b600482815481106106e1576106e1612e38565b905f5260205f209060080201600101549050919050565b5f5f5f8661074757345f03610720576040516356316e8760e01b815260040160405180910390fd5b831561073f576040516309999ff160e21b815260040160405180910390fd5b349150610825565b835f03610767576040516356316e8760e01b815260040160405180910390fd5b3415610786576040516309999ff160e21b815260040160405180910390fd5b506001546040516323b872dd60e01b81523360048201523060248201526044810185905284915f916001600160a01b03909116906323b872dd906064016020604051808303815f875af11580156107df573d5f5f3e3d5ffd5b505050506040513d601f19601f820116820180604052508101906108039190612e4c565b905080610823576040516312171d8360e31b815260040160405180910390fd5b505b5f6108658e8e8e8080601f0160208091040260200160405190810160405280939291908181526020018383808284375f9201919091525061175f92505050565b90505f6108a78c8c8c8080601f0160208091040260200160405190810160405280939291908181526020018383808284375f9201919091525061175f92505050565b90506108b2826117d2565b506108bd82336117f2565b506108c7816117d2565b506108d281336117f2565b5060035494505f6108e281611815565b90506108ed8161182a565b506003604051806101a00160405280336001600160a01b031681526020018581526020018481526020018481526020018381526020018b8b8080601f0160208091040260200160405190810160405280939291908181526020018383808284375f9201829052509385525050508d1515602083015260409091019081524260208083019190915260408083018a905260608084018a905260808085018c905260a09485018b90528654600180820189555f988952978590208751600c90920201805473ffffffffffffffffffffffffffffffffffffffff19166001600160a01b03909216919091178155938601519684019690965590840151600283015583015160038201559282015160048401558101519091906005820190610a119082612ef7565b5060c082015160068201805491151560ff1983168117825560e08501519261ff001990911661ffff1990911617610100836002811115610a5357610a53612db4565b021790555061010082015181600701556101208201518160080155610140820151816009015561016082015181600a015561018082015181600b01555050336001600160a01b0316867fb99820451b558ca1759c8d33a11960c93209abcdc8a3484644652fcfb3aacc7b8b8b8e8a8a604051610ad3959493929190612fb2565b60405180910390a350505050509a9950505050505050505050565b6003548910610b1057604051635d70603360e01b815260040160405180910390fd5b5f60038a81548110610b2457610b24612e38565b5f91825260208220600c9091020191506006820154610100900460ff166002811115610b5257610b52612db4565b14610b705760405163206931ef60e01b815260040160405180910390fd5b8054336001600160a01b0390911603610b9c57604051632a3cd12360e21b815260040160405180910390fd5b600681015460ff16610c31573415610bc7576040516309999ff160e21b815260040160405180910390fd5b815f03610be7576040516356316e8760e01b815260040160405180910390fd5b825f03610c07576040516356316e8760e01b815260040160405180910390fd5b80600a0154831115610c2c576040516304fce4c160e21b815260040160405180910390fd5b610cb6565b823414610c51576040516309999ff160e21b815260040160405180910390fd5b825f03610c71576040516356316e8760e01b815260040160405180910390fd5b815f03610c91576040516356316e8760e01b815260040160405180910390fd5b80600b0154821115610cb6576040516304fce4c160e21b815260040160405180910390fd5b5f610cf68a8a8a8080601f0160208091040260200160405190810160405280939291908181526020018383808284375f9201919091525061175f92505050565b90505f610d388888888080601f0160208091040260200160405190810160405280939291908181526020018383808284375f9201919091525061175f92505050565b9050610d43826117d2565b50610d4d816117d2565b505f610d5a848484611839565b9050610d698d85838989611a01565b50505050505050505050505050565b6003548110610d9a57604051635d70603360e01b815260040160405180910390fd5b5f60038281548110610dae57610dae612e38565b5f91825260208220600c9091020191506006820154610100900460ff166002811115610ddc57610ddc612db4565b14610dfa5760405163206931ef60e01b815260040160405180910390fd5b80546001600160a01b03163314610e245760405163b331e42160e01b815260040160405180910390fd5b60068101805461ff001916610200179055600a81018054600b830180545f938490559290556040805182815260208101849052815192939286927fbf07d165e3fa9ba685a3edcfb3fcc9d646b5c9dae990a0848da1bb47cb2e5734928290030190a28115610ef4576040515f90339084908381818185875af1925050503d805f8114610ecb576040519150601f19603f3d011682016040523d82523d5f602084013e610ed0565b606091505b5050905080610ef257604051630db2c7f160e31b815260040160405180910390fd5b505b8015610f8e5760015460405163a9059cbb60e01b8152336004820152602481018390525f916001600160a01b03169063a9059cbb906044016020604051808303815f875af1158015610f48573d5f5f3e3d5ffd5b505050506040513d601f19601f82011682018060405250810190610f6c9190612e4c565b905080610f8c576040516312171d8360e31b815260040160405180910390fd5b505b50505050565b6003548210610fb657604051635d70603360e01b815260040160405180910390fd5b5f60038381548110610fca57610fca612e38565b5f9182526020909120600c9091020180549091506001600160a01b031633146110065760405163b331e42160e01b815260040160405180910390fd5b6001600160a01b03821661102d5760405163d92e233d60e01b815260040160405180910390fd5b61103b8160010154836117f2565b5061104a8160020154836117f2565b506110598160030154836117f2565b5060048101541561107457611072816004015483612014565b505b6040516001600160a01b0383169084907f3c3a9147a1fc73dd51a32f4d10c43d457e8cb826eb6f35cac6349eb965ba82b4905f90a3505050565b335f9081526006602090815260409182902080548351818402810184019094528084526060939283018282801561110257602002820191905f5260205f20905b8154815260200190600101908083116110ee575b5050505050905090565b5f611115612023565b905090565b6003545f90821061113e57604051635d70603360e01b815260040160405180910390fd5b6003828154811061115157611151612e38565b905f5260205f2090600c0201600201549050919050565b5f546001600160a01b03163314611192576040516330cd747160e01b815260040160405180910390fd5b6001600160a01b0381166111b95760405163d92e233d60e01b815260040160405180910390fd5b600280546001600160a01b0383811673ffffffffffffffffffffffffffffffffffffffff19831681179093556040519116919082907fee95d73a44bc51e913c740ca990239220af451f89c3af64524d265f485b86d42905f90a35050565b600354606090821061123c57604051635d70603360e01b815260040160405180910390fd5b5f828152600560209081526040918290208054835181840281018401909452808452909183018282801561128d57602002820191905f5260205f20905b815481526020019060010190808311611279575b50505050509050919050565b5f60605f5f5f5f5f5f5f6003805490508a106112c857604051635d70603360e01b815260040160405180910390fd5b5f60038b815481106112dc576112dc612e38565b5f9182526020909120600c9091020180546006820154600783015460088401546009850154600a860154600b8701546005880180549899506001600160a01b039097169760ff80881697610100900416959493929190889061133d90612e7b565b80601f016020809104026020016040519081016040528092919081815260200182805461136990612e7b565b80156113b45780601f1061138b576101008083540402835291602001916113b4565b820191905f5260205f20905b81548152906001019060200180831161139757829003601f168201915b50505050509750995099509950995099509950995099509950509193959799909294969850565b5f5f5f5f60048054905085106114045760405163ddd0728560e01b815260040160405180910390fd5b5f6004868154811061141857611418612e38565b905f5260205f2090600802019050805f01548160050154826006015483600701549450945094509450509193509193565b6003545f90821061146d57604051635d70603360e01b815260040160405180910390fd5b6003828154811061148057611480612e38565b905f5260205f2090600c0201600401549050919050565b6003545f9082106114bb57604051635d70603360e01b815260040160405180910390fd5b600382815481106114ce576114ce612e38565b905f5260205f2090600c0201600101549050919050565b5f546001600160a01b0316331461150f576040516330cd747160e01b815260040160405180910390fd5b6001600160a01b0381166115365760405163d92e233d60e01b815260040160405180910390fd5b5f80546001600160a01b0383811673ffffffffffffffffffffffffffffffffffffffff19831681178455604051919092169283917f8be0079c531659141344cd1fd0a4f28419497f9722a3daafe3b4186f6b6457e09190a35050565b6003545f9082106115b657604051635d70603360e01b815260040160405180910390fd5b600382815481106115c9576115c9612e38565b905f5260205f2090600c0201600301549050919050565b5f600382815481106115f4576115f4612e38565b5f9182526020909120600c909102016001810154600254919250611620916001600160a01b03166117f2565b50600280820154905461163c91906001600160a01b03166117f2565b50600381015460025461165891906001600160a01b03166117f2565b5060048101541561168057600481015460025461167e91906001600160a01b0316612014565b505b5050565b5f818152600560205260408120905b815481101561167e575f60048383815481106116b1576116b1612e38565b905f5260205f200154815481106116ca576116ca612e38565b5f918252602090912060089091020160018101546002549192506116f6916001600160a01b03166117f2565b50600280820154905461171291906001600160a01b03166117f2565b50600381015460025461172e91906001600160a01b03166117f2565b5060048101541561175657600481015460025461175491906001600160a01b0316612014565b505b50600101611693565b5f81515f1461177b5761177483836005612057565b90506117cc565b825f8190036117955761178d5f612151565b9150506117cc565b61179f8133612167565b6117c957604051630276b5d960e01b81526004810182905233602482015260440160405180910390fd5b90505b92915050565b5f816117e4576117e15f612151565b91505b6117ee82306121f3565b5090565b5f82611804576118015f612151565b92505b61180e83836121f3565b5090919050565b5f6117cc826001600160a01b03166007612267565b5f816117e4576117e15f611815565b6118666040518060a001604052805f81526020015f81526020015f81526020015f81526020015f81525090565b5f6118758486600101546122f6565b905061188081612324565b505f611890848760030154612333565b905061189b816117d2565b505f6118a65f612151565b90506118b1816117d2565b506118bd838383612361565b8085526118c9906117d2565b506118db8760010154855f01516123aa565b602085018190526118eb906117d2565b505f6118fb8860030154846123d8565b9050611906816117d2565b5061191684828a60030154612361565b60408601819052611926906117d2565b505f611936866040015184612406565b905061194181612324565b505f611950875f015185612434565b905061195b81612324565b505f6119678783612462565b905061197281612324565b5061197b612490565b6060890181905261198b906117d2565b5061199533611815565b608089018190526119a59061182a565b505f6119b48b8a5f01516123aa565b90506119bf816117d2565b505f6119cf8a6020015183612406565b90506119da81612324565b506119e5883361249b565b506119f089336124b7565b505050505050505050509392505050565b60408301518454611a1b91906001600160a01b03166117f2565b50604083015160038501556080830151611a359033612014565b5060808301518454611a5091906001600160a01b0316612014565b506080830151600485015560075415611a7a57611a72600754845f01516124c6565b600755611a80565b82516007555b611a8b6007546117d2565b5082518454611aa391906001600160a01b03166117f2565b508251611ab090336117f2565b5060208301518454611acb91906001600160a01b03166117f2565b50611ada8360200151336117f2565b5060608301518454611af591906001600160a01b03166117f2565b50611b048360600151336117f2565b5060068401545f90819060ff16611b39578386600a015f828254611b28919061300a565b90915550849250839150611b589050565b8286600b015f828254611b4c919061300a565b90915550849250839150505b600a860154158015611b6c5750600b860154155b15611b835760068601805461ff0019166101001790555b6004805460408051610100810182528a8152885160208083019182528a8101518385019081526060808d01519085019081526080808e01519086019081524260a0870190815260c087018c815260e088018c81526001808c018d555f9c8d5298516008808d027f8a35acfbc15ff81a39ae7d344fd709f28e8600b4aa8c65c6b64bfe7fe36bd19b81019290925598517f8a35acfbc15ff81a39ae7d344fd709f28e8600b4aa8c65c6b64bfe7fe36bd19c82015595517f8a35acfbc15ff81a39ae7d344fd709f28e8600b4aa8c65c6b64bfe7fe36bd19d87015593517f8a35acfbc15ff81a39ae7d344fd709f28e8600b4aa8c65c6b64bfe7fe36bd19e86015591517f8a35acfbc15ff81a39ae7d344fd709f28e8600b4aa8c65c6b64bfe7fe36bd19f850155517f8a35acfbc15ff81a39ae7d344fd709f28e8600b4aa8c65c6b64bfe7fe36bd1a0840155517f8a35acfbc15ff81a39ae7d344fd709f28e8600b4aa8c65c6b64bfe7fe36bd1a1830155517f8a35acfbc15ff81a39ae7d344fd709f28e8600b4aa8c65c6b64bfe7fe36bd1a2909101558c8652600581528386208054808501825590875281872001859055338652600681529285208054928301815585529184200182905580549192611d5a8361301d565b90915550508551611d6a906124f4565b50604080518481526020810184905282918a917f7865ebfd0d64810cd22a1bba2cc6215971ade47ff8428f00aff350835f4b088b910160405180910390a360405181907ffe4fedca768f666b284ef8c7b4eeb90181a437108a16868769e360cd7e51b01f905f90a2600687015460ff16611ef8578315611e855760015487546040516323b872dd60e01b81523360048201526001600160a01b039182166024820152604481018790525f9291909116906323b872dd906064016020604051808303815f875af1158015611e3f573d5f5f3e3d5ffd5b505050506040513d601f19601f82011682018060405250810190611e639190612e4c565b905080611e83576040516312171d8360e31b815260040160405180910390fd5b505b8415611ef3576040515f90339087908381818185875af1925050503d805f8114611eca576040519150601f19603f3d011682016040523d82523d5f602084013e611ecf565b606091505b5050905080611ef157604051630db2c7f160e31b815260040160405180910390fd5b505b61200a565b8415611f705786546040515f916001600160a01b03169087908381818185875af1925050503d805f8114611f47576040519150601f19603f3d011682016040523d82523d5f602084013e611f4c565b606091505b5050905080611f6e57604051630db2c7f160e31b815260040160405180910390fd5b505b831561200a5760015460405163a9059cbb60e01b8152336004820152602481018690525f916001600160a01b03169063a9059cbb906044016020604051808303815f875af1158015611fc4573d5f5f3e3d5ffd5b505050506040513d601f19601f82011682018060405250810190611fe89190612e4c565b905080612008576040516312171d8360e31b815260040160405180910390fd5b505b5050505050505050565b5f82611804576118015f611815565b5f466001036120325750600190565b4662aa36a703612043575061271190565b46617a690361205257505f1990565b505f90565b5f5160206130b95f395f51905f525460405163045fc19560e11b81525f915f5160206130d95f395f51905f52916001600160a01b03909116906308bf832a906120aa908890339089908990600401613049565b6020604051808303815f875af11580156120c6573d5f5f3e3d5ffd5b505050506040513d601f19601f820116820180604052508101906120ea919061307f565b8154604051630f8e573b60e21b8152600481018390523360248201529193506001600160a01b031690633e395cec906044015f604051808303815f87803b158015612133575f5ffd5b505af1158015612145573d5f5f3e3d5ffd5b50505050509392505050565b5f6117cc8267ffffffffffffffff166005612267565b5f805f5160206130d95f395f51905f5280546040516382027b6d60e01b8152600481018790526001600160a01b0386811660248301529293509116906382027b6d90604401602060405180830381865afa1580156121c7573d5f5f3e3d5ffd5b505050506040513d601f19601f820116820180604052508101906121eb9190612e4c565b949350505050565b5f5160206130d95f395f51905f528054604051635ca4b5b160e11b8152600481018590526001600160a01b0384811660248301529091169063b9496b62906044015b5f604051808303815f87803b15801561224c575f5ffd5b505af115801561225e573d5f5f3e3d5ffd5b50505050505050565b5f5160206130b95f395f51905f5254604051639cd07acb60e01b81525f915f5160206130d95f395f51905f52916001600160a01b0390911690639cd07acb906122b69087908790600401613096565b6020604051808303815f875af11580156122d2573d5f5f3e3d5ffd5b505050506040513d601f19601f820116820180604052508101906121eb919061307f565b5f82612308576123055f612151565b92505b81612319576123165f612151565b91505b6117c983835f61250f565b5f816117e4576117e15f6125cc565b5f82612345576123425f612151565b92505b81612356576123535f612151565b91505b6117c983835f6125e7565b5f83612373576123705f6125cc565b93505b82612384576123815f612151565b92505b81612395576123925f612151565b91505b6123a084848461265e565b90505b9392505050565b5f826123bc576123b95f612151565b92505b816123cd576123ca5f612151565b91505b6117c983835f6126f4565b5f826123ea576123e75f612151565b92505b816123fb576123f85f612151565b91505b6117c983835f61276b565b5f82612418576124155f612151565b92505b81612429576124265f612151565b91505b6117c983835f6127e2565b5f82612446576124435f612151565b92505b81612457576124545f612151565b91505b6117c983835f612859565b5f82612474576124715f6125cc565b92505b81612485576124825f6125cc565b91505b6117c983835f6128d0565b5f6111156005612947565b5f826124ad576124aa5f612151565b92505b61180e83836129d4565b5f826124ad576124aa5f6125cc565b5f826124d8576124d55f612151565b92505b816124e9576124e65f612151565b91505b6117c983835f612a1a565b5f81612506576125035f612151565b91505b6117ee82612a91565b5f5f82156125225750600160f81b612525565b505f5b5f5160206130b95f395f51905f5254604051631391547f60e01b815260048101879052602481018690526001600160f81b0319831660448201525f5160206130d95f395f51905f52916001600160a01b031690631391547f906064015b6020604051808303815f875af115801561259e573d5f5f3e3d5ffd5b505050506040513d601f19601f820116820180604052508101906125c2919061307f565b9695505050505050565b5f6117cc826125db575f6125de565b60015b60ff165f612267565b5f5f82156125fa5750600160f81b6125fd565b505f5b5f5160206130b95f395f51905f52546040516304559f7160e01b815260048101879052602481018690526001600160f81b0319831660448201525f5160206130d95f395f51905f52916001600160a01b0316906304559f7190606401612582565b5f805f5160206130d95f395f51905f526001810154604051637702dcff60e01b81526004810188905260248101879052604481018690529192506001600160a01b031690637702dcff906064016020604051808303815f875af11580156126c7573d5f5f3e3d5ffd5b505050506040513d601f19601f820116820180604052508101906126eb919061307f565b95945050505050565b5f5f82156127075750600160f81b61270a565b505f5b5f5160206130b95f395f51905f5254604051630afe14ad60e31b815260048101879052602481018690526001600160f81b0319831660448201525f5160206130d95f395f51905f52916001600160a01b0316906357f0a56890606401612582565b5f5f821561277e5750600160f81b612781565b505f5b5f5160206130b95f395f51905f52546040516303056db360e31b815260048101879052602481018690526001600160f81b0319831660448201525f5160206130d95f395f51905f52916001600160a01b03169063182b6d9890606401612582565b5f5f82156127f55750600160f81b6127f8565b505f5b5f5160206130b95f395f51905f525460405163f77f3f1d60e01b815260048101879052602481018690526001600160f81b0319831660448201525f5160206130d95f395f51905f52916001600160a01b03169063f77f3f1d90606401612582565b5f5f821561286c5750600160f81b61286f565b505f5b5f5160206130b95f395f51905f52546040516385362ee760e01b815260048101879052602481018690526001600160f81b0319831660448201525f5160206130d95f395f51905f52916001600160a01b0316906385362ee790606401612582565b5f5f82156128e35750600160f81b6128e6565b505f5b5f5160206130b95f395f51905f525460405163d99882d560e01b815260048101879052602481018690526001600160f81b0319831660448201525f5160206130d95f395f51905f52916001600160a01b03169063d99882d590606401612582565b5f5160206130b95f395f51905f5254604051636baeb74560e11b81525f915f5160206130d95f395f51905f52916001600160a01b039091169063d75d6e8a906129949086906004016130aa565b6020604051808303815f875af11580156129b0573d5f5f3e3d5ffd5b505050506040513d601f19601f820116820180604052508101906123a3919061307f565b5f5160206130d95f395f51905f528054604051630f8e573b60e21b8152600481018590526001600160a01b03848116602483015290911690633e395cec90604401612235565b5f5f8215612a2d5750600160f81b612a30565b505f5b5f5160206130b95f395f51905f525460405163022f65e760e31b815260048101879052602481018690526001600160f81b0319831660448201525f5160206130d95f395f51905f52916001600160a01b03169063117b2f3890606401612582565b6040805160018082528183019092525f5160206130d95f395f51905f52915f91906020808301908036833701905050905082815f81518110612ad557612ad5612e38565b60209081029190910101528154604051637d6e912360e11b81526001600160a01b039091169063fadd224690612235908490600401612d2b565b5f60208284031215612b1f575f5ffd5b5035919050565b5f5f83601f840112612b36575f5ffd5b50813567ffffffffffffffff811115612b4d575f5ffd5b602083019150836020828501011115612b64575f5ffd5b9250929050565b8015158114612b78575f5ffd5b50565b5f5f5f5f5f5f5f5f5f5f60e08b8d031215612b94575f5ffd5b8a35995060208b013567ffffffffffffffff811115612bb1575f5ffd5b612bbd8d828e01612b26565b909a5098505060408b0135965060608b013567ffffffffffffffff811115612be3575f5ffd5b612bef8d828e01612b26565b90975095505060808b0135612c0381612b6b565b935060a08b013567ffffffffffffffff811115612c1e575f5ffd5b612c2a8d828e01612b26565b9b9e9a9d50989b979a96999598949794969560c090950135949350505050565b5f5f5f5f5f5f5f5f5f60e08a8c031215612c62575f5ffd5b8935985060208a0135975060408a013567ffffffffffffffff811115612c86575f5ffd5b612c928c828d01612b26565b90985096505060608a0135945060808a013567ffffffffffffffff811115612cb8575f5ffd5b612cc48c828d01612b26565b9a9d999c50979a96999598959660a08101359660c09091013595509350505050565b80356001600160a01b0381168114612cfc575f5ffd5b919050565b5f5f60408385031215612d12575f5ffd5b82359150612d2260208401612ce6565b90509250929050565b602080825282518282018190525f918401906040840190835b81811015612d62578351835260209384019390920191600101612d44565b509095945050505050565b5f60208284031215612d7d575f5ffd5b6117c982612ce6565b5f81518084528060208401602086015e5f602082860101526020601f19601f83011685010191505092915050565b634e487b7160e01b5f52602160045260245ffd5b6001600160a01b038a16815261012060208201525f612deb61012083018b612d86565b9050881515604083015260038810612e0557612e05612db4565b8760608301528660808301528560a08301528460c08301528360e0830152826101008301529a9950505050505050505050565b634e487b7160e01b5f52603260045260245ffd5b5f60208284031215612e5c575f5ffd5b81516123a381612b6b565b634e487b7160e01b5f52604160045260245ffd5b600181811c90821680612e8f57607f821691505b602082108103612ead57634e487b7160e01b5f52602260045260245ffd5b50919050565b601f82111561167e57805f5260205f20601f840160051c81016020851015612ed85750805b601f840160051c820191505b81811015610f8c575f8155600101612ee4565b815167ffffffffffffffff811115612f1157612f11612e67565b612f2581612f1f8454612e7b565b84612eb3565b6020601f821160018114612f57575f8315612f405750848201515b5f19600385901b1c1916600184901b178455610f8c565b5f84815260208120601f198516915b82811015612f865787850151825560209485019460019092019101612f66565b5084821015612fa357868401515f19600387901b60f8161c191681555b50505050600190811b01905550565b60808152846080820152848660a08301375f60a0868301810191909152931515602082015260408101929092526060820152601f909201601f191690910101919050565b634e487b7160e01b5f52601160045260245ffd5b818103818111156117cc576117cc612ff6565b5f6001820161302e5761302e612ff6565b5060010190565b6054811061304557613045612db4565b9052565b8481526001600160a01b0384166020820152608060408201525f6130706080830185612d86565b90506126eb6060830184613035565b5f6020828403121561308f575f5ffd5b5051919050565b828152604081016123a36020830184613035565b602081016117cc828461303556fe9e7b61f58c47dc699ac88507c4f5bb9f121c03808c5676a8078fe583e46497019e7b61f58c47dc699ac88507c4f5bb9f121c03808c5676a8078fe583e4649700a164736f6c634300081b000a",
  "devdoc": {
    "author": "Dark Pool Protocol",
    "details": "Uses 15 distinct FHE operations: ge, min, sub, mul, add, select, randEuint64,      eq (x2), gt, makePubliclyDecryptable, asEaddress, asEuint64, allowTransient, and.      SELL orders: maker deposits ETH, taker pays USDC.      BUY orders: maker deposits USDC, taker pays ETH.",
    "kind": "dev",
    "methods": {
      "cancelOrder(uint256)": {
        "details": "SELL orders refund remaining ETH; BUY orders refund remaining USDC.",
        "params": {
          "orderId": "The ID of the order to cancel"
        }
      },
      "constructor": {
        "params": {
          "_paymentToken": "The ERC20 token address used for escrow (e.g., USDC)"
        }
      },
      "createOrder(bytes32,bytes,bytes32,bytes,bool,string,uint256)": {
        "details": "SELL orders: maker deposits ETH via msg.value (sells ETH for USDC).      BUY orders: maker deposits USDC via approve+transferFrom (buys ETH with USDC).      Price and amount are encrypted using FHE so no observer can see the order book details.      FHE operations: fromExternal (x2), allowThis (x3), allow (x2), asEaddress",
        "params": {
          "amountProof": "ZK proof for the encrypted amount",
          "encAmount": "The encrypted total amount/quantity (externalEuint64)",
          "encPrice": "The encrypted price per unit (externalEuint64)",
          "isBuy": "Whether this is a buy or sell order",
          "priceProof": "ZK proof for the encrypted price",
          "tokenPair": "The trading pair identifier (e.g., \"ETH/USDC\")",
          "usdcDeposit": "The plaintext amount of USDC to escrow (BUY orders only, 0 for SELL)"
        },
        "returns": {
          "orderId": "The ID of the newly created order"
        }
      },
      "fillOrder(uint256,bytes32,bytes,bytes32,bytes,uint256,uint256)": {
        "details": "This is the core dark pool matching engine. The function is split across      internal helpers to avoid stack-too-deep. See _computeFill and _recordFill.      For SELL orders (maker deposited ETH): taker provides USDC, receives ETH.      For BUY orders (maker deposited USDC): taker provides ETH (msg.value), receives USDC.      FHE operations used (15 total):        1. FHE.ge        - Encrypted price comparison        2. FHE.min       - Partial fill calculation        3. FHE.asEuint64 - Create encrypted zero constant        4. FHE.select    - Conditional fill (encrypted ternary)        5. FHE.mul       - Encrypted settlement total        6. FHE.sub       - Update remaining quantity        7. FHE.select    - Conditional remaining update        8. FHE.eq        - Check if fully filled        9. FHE.gt        - Check if fill is positive       10. FHE.and       - Compound boolean logic       11. FHE.randEuint64 - Fair tiebreaking randomness       12. FHE.asEaddress  - Encrypt taker counterparty       13. FHE.add         - Accumulate protocol volume       14. FHE.makePubliclyDecryptable - Post-trade transparency       15. FHE.eq         - Amount consistency verification       +   FHE.allowTransient - Gas-optimized transient ACL",
        "params": {
          "encTakerAmount": "The taker's encrypted amount (externalEuint64)",
          "encTakerPrice": "The taker's encrypted price (externalEuint64)",
          "orderId": "The ID of the order to fill",
          "takerAmountProof": "ZK proof for the taker's encrypted amount",
          "takerEthAmount": "ETH the taker wants (SELL) or provides (BUY) - plaintext",
          "takerPriceProof": "ZK proof for the taker's encrypted price",
          "takerUsdcAmount": "USDC the taker provides (SELL) or wants (BUY) - plaintext"
        }
      },
      "grantAccess(uint256,address)": {
        "params": {
          "orderId": "The order to grant access for",
          "viewer": "The address to grant view access to"
        }
      },
      "grantAuditorAccess(uint256)": {
        "params": {
          "orderId": "The order to grant auditor access to"
        }
      },
      "setAuditor(address)": {
        "params": {
          "newAuditor": "The new auditor address"
        }
      },
      "transferOwnership(address)": {
        "params": {
          "newOwner": "The new owner address"
        }
      }
    },
    "title": "ConfidentialOTC - Confidential Dark Pool with Deep FHE Usage",
    "version": 1
  },
  "userdoc": {
    "errors": {
      "SenderNotAllowedToUseHandle(bytes32,address)": [
        {
          "notice": "Returned if the sender is not allowed to use the handle."
        }
      ],
      "ZamaProtocolUnsupported()": [
        {
          "notice": "Returned if the Zama protocol is not supported on the current chain"
        }
      ]
    },
    "events": {
      "AccessGranted(uint256,address)": {
        "notice": "Emitted when a maker grants view access to a third party"
      },
      "AuditorAccessGranted(uint256)": {
        "notice": "Emitted when auditor is granted access to an order"
      },
      "AuditorUpdated(address,address)": {
        "notice": "Emitted when the auditor address is updated"
      },
      "FillVolumePublished(uint256)": {
        "notice": "Emitted when fill volume is made publicly decryptable"
      },
      "OrderCancelled(uint256,uint256,uint256)": {
        "notice": "Emitted when an order is cancelled and assets refunded"
      },
      "OrderCreated(uint256,address,string,bool,uint256,uint256)": {
        "notice": "Emitted when a new order is created with escrow"
      },
      "OrderFilled(uint256,uint256,uint256,uint256)": {
        "notice": "Emitted when an order is partially or fully filled"
      },
      "OwnershipTransferred(address,address)": {
        "notice": "Emitted when contract ownership is transferred"
      }
    },
    "kind": "user",
    "methods": {
      "auditor()": {
        "notice": "Compliance auditor who can be granted access to any order/fill"
      },
      "cancelOrder(uint256)": {
        "notice": "Cancel an open order and refund the escrowed assets to the maker"
      },
      "constructor": {
        "notice": "Deploys the dark pool and sets the deployer as owner"
      },
      "createOrder(bytes32,bytes,bytes32,bytes,bool,string,uint256)": {
        "notice": "Create an OTC order with encrypted price and amount, depositing escrow"
      },
      "fillCount()": {
        "notice": "Returns the total number of fills executed"
      },
      "fillOrder(uint256,bytes32,bytes,bytes32,bytes,uint256,uint256)": {
        "notice": "Fill an open order with encrypted price matching and two-sided asset transfer"
      },
      "getAmount(uint256)": {
        "notice": "Get the encrypted amount handle"
      },
      "getEncryptedTaker(uint256)": {
        "notice": "Get the encrypted taker address handle for an order"
      },
      "getFill(uint256)": {
        "notice": "Get public fields of a fill"
      },
      "getFillAmount(uint256)": {
        "notice": "Get the encrypted fill amount handle"
      },
      "getFillEncryptedTaker(uint256)": {
        "notice": "Get the encrypted taker address from a fill"
      },
      "getFillPriorityScore(uint256)": {
        "notice": "Get the encrypted priority score for fair tiebreaking"
      },
      "getFillTotal(uint256)": {
        "notice": "Get the encrypted settlement total handle"
      },
      "getMyFills()": {
        "notice": "Get the list of fill IDs where the caller was the taker"
      },
      "getOrder(uint256)": {
        "notice": "Get public (non-encrypted) fields of an order"
      },
      "getOrderFills(uint256)": {
        "notice": "Get the list of fill IDs for a given order"
      },
      "getPrice(uint256)": {
        "notice": "Get the encrypted price handle"
      },
      "getRemainingAmount(uint256)": {
        "notice": "Get the encrypted remaining amount handle"
      },
      "getTotalVolume()": {
        "notice": "Get the encrypted total protocol volume handle"
      },
      "grantAccess(uint256,address)": {
        "notice": "Maker grants a specific address permission to decrypt order fields"
      },
      "grantAuditorAccess(uint256)": {
        "notice": "Grant the auditor access to decrypt all fields of an order and its fills"
      },
      "orderCount()": {
        "notice": "Returns the total number of orders created"
      },
      "owner()": {
        "notice": "Contract owner (deployer)"
      },
      "paymentToken()": {
        "notice": "ERC20 payment token used for escrow (e.g., USDC)"
      },
      "setAuditor(address)": {
        "notice": "Set the compliance auditor address (owner only)"
      },
      "totalFillCount()": {
        "notice": "Total number of fills executed"
      },
      "transferOwnership(address)": {
        "notice": "Transfer ownership of the contract"
      }
    },
    "notice": "A fully encrypted OTC dark pool where prices, amounts, and counterparties are         hidden using Fully Homomorphic Encryption. Supports two-sided ETH/USDC swaps,         encrypted price matching, partial fills, encrypted settlement totals, fair         tiebreaking via FHE randomness, encrypted counterparty addresses,         compliance/auditor access, and post-trade transparency for fill volumes.",
    "version": 1
  },
  "storageLayout": {
    "storage": [
      {
        "astId": 42296,
        "contract": "contracts/ConfidentialOTC.sol:ConfidentialOTC",
        "label": "owner",
        "offset": 0,
        "slot": "0",
        "type": "t_address"
      },
      {
        "astId": 42300,
        "contract": "contracts/ConfidentialOTC.sol:ConfidentialOTC",
        "label": "paymentToken",
        "offset": 0,
        "slot": "1",
        "type": "t_contract(IERC20)42213"
      },
      {
        "astId": 42303,
        "contract": "contracts/ConfidentialOTC.sol:ConfidentialOTC",
        "label": "auditor",
        "offset": 0,
        "slot": "2",
        "type": "t_address"
      },
      {
        "astId": 42308,
        "contract": "contracts/ConfidentialOTC.sol:ConfidentialOTC",
        "label": "_orders",
        "offset": 0,
        "slot": "3",
        "type": "t_array(t_struct(Order)42254_storage)dyn_storage"
      },
      {
        "astId": 42313,
        "contract": "contracts/ConfidentialOTC.sol:ConfidentialOTC",
        "label": "_fills",
        "offset": 0,
        "slot": "4",
        "type": "t_array(t_struct(Fill)42276_storage)dyn_storage"
      },
      {
        "astId": 42319,
        "contract": "contracts/ConfidentialOTC.sol:ConfidentialOTC",
        "label": "_orderFills",
        "offset": 0,
        "slot": "5",
        "type": "t_mapping(t_uint256,t_array(t_uint256)dyn_storage)"
      },
      {
        "astId": 42325,
        "contract": "contracts/ConfidentialOTC.sol:ConfidentialOTC",
        "label": "_takerFillIds",
        "offset": 0,
        "slot": "6",
        "type": "t_mapping(t_address,t_array(t_uint256)dyn_storage)"
      },
      {
        "astId": 42329,
        "contract": "contracts/ConfidentialOTC.sol:ConfidentialOTC",
        "label": "_totalVolume",
        "offset": 0,
        "slot": "7",
        "type": "t_userDefinedValueType(euint64)44369"
      },
      {
        "astId": 42332,
        "contract": "contracts/ConfidentialOTC.sol:ConfidentialOTC",
        "label": "totalFillCount",
        "offset": 0,
        "slot": "8",
        "type": "t_uint256"
      }
    ],
    "types": {
      "t_address": {
        "encoding": "inplace",
        "label": "address",
        "numberOfBytes": "20"
      },
      "t_array(t_struct(Fill)42276_storage)dyn_storage": {
        "base": "t_struct(Fill)42276_storage",
        "encoding": "dynamic_array",
        "label": "struct ConfidentialOTC.Fill[]",
        "numberOfBytes": "32"
      },
      "t_array(t_struct(Order)42254_storage)dyn_storage": {
        "base": "t_struct(Order)42254_storage",
        "encoding": "dynamic_array",
        "label": "struct ConfidentialOTC.Order[]",
        "numberOfBytes": "32"
      },
      "t_array(t_uint256)dyn_storage": {
        "base": "t_uint256",
        "encoding": "dynamic_array",
        "label": "uint256[]",
        "numberOfBytes": "32"
      },
      "t_bool": {
        "encoding": "inplace",
        "label": "bool",
        "numberOfBytes": "1"
      },
      "t_contract(IERC20)42213": {
        "encoding": "inplace",
        "label": "contract IERC20",
        "numberOfBytes": "20"
      },
      "t_enum(Status)42221": {
        "encoding": "inplace",
        "label": "enum ConfidentialOTC.Status",
        "numberOfBytes": "1"
      },
      "t_mapping(t_address,t_array(t_uint256)dyn_storage)": {
        "encoding": "mapping",
        "key": "t_address",
        "label": "mapping(address => uint256[])",
        "numberOfBytes": "32",
        "value": "t_array(t_uint256)dyn_storage"
      },
      "t_mapping(t_uint256,t_array(t_uint256)dyn_storage)": {
        "encoding": "mapping",
        "key": "t_uint256",
        "label": "mapping(uint256 => uint256[])",
        "numberOfBytes": "32",
        "value": "t_array(t_uint256)dyn_storage"
      },
      "t_string_storage": {
        "encoding": "bytes",
        "label": "string",
        "numberOfBytes": "32"
      },
      "t_struct(Fill)42276_storage": {
        "encoding": "inplace",
        "label": "struct ConfidentialOTC.Fill",
        "members": [
          {
            "astId": 42257,
            "contract": "contracts/ConfidentialOTC.sol:ConfidentialOTC",
            "label": "orderId",
            "offset": 0,
            "slot": "0",
            "type": "t_uint256"
          },
          {
            "astId": 42260,
            "contract": "contracts/ConfidentialOTC.sol:ConfidentialOTC",
            "label": "fillAmount",
            "offset": 0,
            "slot": "1",
            "type": "t_userDefinedValueType(euint64)44369"
          },
          {
            "astId": 42263,
            "contract": "contracts/ConfidentialOTC.sol:ConfidentialOTC",
            "label": "fillTotal",
            "offset": 0,
            "slot": "2",
            "type": "t_userDefinedValueType(euint64)44369"
          },
          {
            "astId": 42266,
            "contract": "contracts/ConfidentialOTC.sol:ConfidentialOTC",
            "label": "priorityScore",
            "offset": 0,
            "slot": "3",
            "type": "t_userDefinedValueType(euint64)44369"
          },
          {
            "astId": 42269,
            "contract": "contracts/ConfidentialOTC.sol:ConfidentialOTC",
            "label": "encryptedTaker",
            "offset": 0,
            "slot": "4",
            "type": "t_userDefinedValueType(eaddress)44483"
          },
          {
            "astId": 42271,
            "contract": "contracts/ConfidentialOTC.sol:ConfidentialOTC",
            "label": "filledAt",
            "offset": 0,
            "slot": "5",
            "type": "t_uint256"
          },
          {
            "astId": 42273,
            "contract": "contracts/ConfidentialOTC.sol:ConfidentialOTC",
            "label": "ethTransferred",
            "offset": 0,
            "slot": "6",
            "type": "t_uint256"
          },
          {
            "astId": 42275,
            "contract": "contracts/ConfidentialOTC.sol:ConfidentialOTC",
            "label": "tokenTransferred",
            "offset": 0,
            "slot": "7",
            "type": "t_uint256"
          }
        ],
        "numberOfBytes": "256"
      },
      "t_struct(Order)42254_storage": {
        "encoding": "inplace",
        "label": "struct ConfidentialOTC.Order",
        "members": [
          {
            "astId": 42224,
            "contract": "contracts/ConfidentialOTC.sol:ConfidentialOTC",
            "label": "maker",
            "offset": 0,
            "slot": "0",
            "type": "t_address"
          },
          {
            "astId": 42227,
            "contract": "contracts/ConfidentialOTC.sol:ConfidentialOTC",
            "label": "price",
            "offset": 0,
            "slot": "1",
            "type": "t_userDefinedValueType(euint64)44369"
          },
          {
            "astId": 42230,
            "contract": "contracts/ConfidentialOTC.sol:ConfidentialOTC",
            "label": "amount",
            "offset": 0,
            "slot": "2",
            "type": "t_userDefinedValueType(euint64)44369"
          },
          {
            "astId": 42233,
            "contract": "contracts/ConfidentialOTC.sol:ConfidentialOTC",
            "label": "remainingAmount",
            "offset": 0,
            "slot": "3",
            "type": "t_userDefinedValueType(euint64)44369"
          },
          {
            "astId": 42236,
            "contract": "contracts/ConfidentialOTC.sol:ConfidentialOTC",
            "label": "encryptedTaker",
            "offset": 0,
            "slot": "4",
            "type": "t_userDefinedValueType(eaddress)44483"
          },
          {
            "astId": 42238,
            "contract": "contracts/ConfidentialOTC.sol:ConfidentialOTC",
            "label": "tokenPair",
            "offset": 0,
            "slot": "5",
            "type": "t_string_storage"
          },
          {
            "astId": 42240,
            "contract": "contracts/ConfidentialOTC.sol:ConfidentialOTC",
            "label": "isBuy",
            "offset": 0,
            "slot": "6",
            "type": "t_bool"
          },
          {
            "astId": 42243,
            "contract": "contracts/ConfidentialOTC.sol:ConfidentialOTC",
            "label": "status",
            "offset": 1,
            "slot": "6",
            "type": "t_enum(Status)42221"
          },
          {
            "astId": 42245,
            "contract": "contracts/ConfidentialOTC.sol:ConfidentialOTC",
            "label": "createdAt",
            "offset": 0,
            "slot": "7",
            "type": "t_uint256"
          },
          {
            "astId": 42247,
            "contract": "contracts/ConfidentialOTC.sol:ConfidentialOTC",
            "label": "ethDeposit",
            "offset": 0,
            "slot": "8",
            "type": "t_uint256"
          },
          {
            "astId": 42249,
            "contract": "contracts/ConfidentialOTC.sol:ConfidentialOTC",
            "label": "tokenDeposit",
            "offset": 0,
            "slot": "9",
            "type": "t_uint256"
          },
          {
            "astId": 42251,
            "contract": "contracts/ConfidentialOTC.sol:ConfidentialOTC",
            "label": "ethRemaining",
            "offset": 0,
            "slot": "10",
            "type": "t_uint256"
          },
          {
            "astId": 42253,
            "contract": "contracts/ConfidentialOTC.sol:ConfidentialOTC",
            "label": "tokenRemaining",
            "offset": 0,
            "slot": "11",
            "type": "t_uint256"
          }
        ],
        "numberOfBytes": "384"
      },
      "t_uint256": {
        "encoding": "inplace",
        "label": "uint256",
        "numberOfBytes": "32"
      },
      "t_userDefinedValueType(eaddress)44483": {
        "encoding": "inplace",
        "label": "eaddress",
        "numberOfBytes": "32"
      },
      "t_userDefinedValueType(euint64)44369": {
        "encoding": "inplace",
        "label": "euint64",
        "numberOfBytes": "32"
      }
    }
  }
}